:020000040800F2
:1000000000000220A1490008ED090008EF090008DE
:10001000F1090008F3090008F509000800000000D4
:10002000000000000000000000000000B1460008D1
:10003000F70900080000000051470008B547000814
:10004000F1490008F1490008F1490008F1490008A8
:10005000F1490008F1490008F1490008F149000898
:10006000F1490008F1490008F1490008F149000888
:10007000F1490008F1490008F1490008F149000878
:10008000F1490008F1490008F1490008F149000868
:10009000F1490008F1490008F1490008F149000858
:1000A000F1490008F1490008F1490008F149000848
:1000B000F1490008F1490008F1490008F149000838
:1000C000F1490008F1490008F1490008F149000828
:1000D000F1490008F1490008F1490008F149000818
:1000E000F1490008F149000800000000F14900084A
:1000F000F1490008F1490008F1490008F1490008F8
:10010000F1490008F1490008F1490008F1490008E7
:10011000F1490008F1490008F9090008F14900080F
:10012000F1490008F1490008F1490008F1490008C7
:10013000F1490008F1490008F1490008F1490008B7
:10014000F1490008F149000800000000000000002B
:10015000F1490008F1490008F1490008F149000897
:10016000F1490008F1490008F1490008F149000887
:10017000F1490008F1490008F149000800000000B9
:10018000F1490008F1490008F1490008F149000867
:10019000F1490008F1490008F1490008F149000857
:1001A000F1490008F1490008F1490008F149000847
:1001B000F1490008F1490008F1490008F149000837
:1001C000F1490008F1490008F1490008F149000827
:1001D000F1490008F1490008F1490008F149000817
:1001E000F1490008F1490008F1490008F149000807
:1001F000F1490008F1490008F1490008F1490008F7
:10020000F1490008F1490008F1490008F1490008E6
:10021000F1490008F1490008F1490008F1490008D6
:10022000F1490008F1490008F14900080000000008
:10023000F1490008F1490008F1490008F1490008B6
:10024000F1490008F1490008F1490008F1490008A6
:10025000F1490008F1490008F1490008F149000896
:10026000F1490008F1490008F1490008F149000886
:10027000F1490008F1490008F1490008F149000876
:10028000F1490008F1490008F149000800000000A8
:08029000F1490008F1490008E2
:1002A00010B5054C237833B9044B13B10448AFF3B0
:1002B00000800123237010BD7800002000000000A2
:1002C000345B000808B5034B1BB103490348AFF387
:1002D000008008BD000000007C000020345B0008A6
:1002E00001F0FF01102A2BDB10F0070F08D010F8E7
:1002F000013B013A8B422DD010F0070F42B3F6D1EB
:10030000F0B441EA012141EA014122F007047FF003
:1003100000070023F0E80256083C85EA010586EA5A
:10032000010685FA47F5A3FA87F586FA47F6A5FA96
:1003300087F68EB9EED1F0BC01F0FF0102F00702A2
:1003400032B110F8013B013A83EA010313B1F8D14D
:100350000020704701387047002D06BF354603382E
:10036000073815F0010F07D1013015F4807F02BF67
:10037000013015F4C03F0130F0BC0138704700BFB8
:1003800053B94AB9002908BF00281CBF4FF0FF31FC
:100390004FF0FF3000F074B9ADF1080C6DE904CEF8
:1003A00000F006F8DDF804E0DDE9022304B0704750
:1003B0002DE9F047089D04468E46002B4DD18A4218
:1003C000944669D9B2FA82F252B101FA02F3C2F14B
:1003D000200120FA01F10CFA02FC41EA030E9440DC
:1003E0004FEA1C48210CBEFBF8F61FFA8CF708FBFD
:1003F00016E341EA034306FB07F199420AD91CEBD5
:10040000030306F1FF3080F01F81994240F21C8106
:10041000023E63445B1AA4B2B3FBF8F008FB10334E
:1004200044EA034400FB07F7A7420AD91CEB040483
:1004300000F1FF3380F00A81A74240F20781644453
:10044000023840EA0640E41B00261DB1D4400023D8
:10045000C5E900433146BDE8F0878B4209D9002D3C
:1004600000F0EF800026C5E9000130463146BDE8C6
:10047000F087B3FA83F6002E4AD18B4202D3824230
:1004800000F2F980841A61EB030301209E46002DDF
:10049000E0D0C5E9004EDDE702B9FFDEB2FA82F234
:1004A000002A40F09280A1EB0C014FEA1C471FFA92
:1004B0008CFE0126200CB1FBF7F307FB131140EA79
:1004C00001410EFB03F0884208D91CEB010103F146
:1004D000FF3802D2884200F2CB804346091AA4B208
:1004E000B1FBF7F007FB101144EA01440EFB00FEDC
:1004F000A64508D91CEB040400F1FF3102D2A64541
:1005000000F2BB800846A4EB0E0440EA03409CE7DF
:10051000C6F12007B34022FA07FC4CEA030C20FA8C
:1005200007F401FA06F31C43F9404FEA1C4900FAAC
:1005300006F3B1FBF9F8200C1FFA8CFE09FB181129
:1005400040EA014108FB0EF0884202FA06F20BD99C
:100550001CEB010108F1FF3A80F08880884240F2EC
:100560008580A8F102086144091AA4B2B1FBF9F030
:1005700009FB101144EA014100FB0EFE8E4508D92B
:100580001CEB010100F1FF346CD28E456AD90238B0
:10059000614440EA0840A0FB0294A1EB0E01A14295
:1005A000C846A64656D353D05DB1B3EB080261EB03
:1005B0000E0101FA07F722FA06F3F1401F43C5E9DD
:1005C000007100263146BDE8F087C2F12003D84013
:1005D0000CFA02FC21FA03F3914001434FEA1C4755
:1005E0001FFA8CFEB3FBF7F007FB10360B0C43EA47
:1005F000064300FB0EF69E4204FA02F408D91CEBF7
:10060000030300F1FF382FD29E422DD902386344F4
:100610009B1B89B2B3FBF7F607FB163341EA034194
:1006200006FB0EF38B4208D91CEB010106F1FF38E3
:1006300016D28B4214D9023E6144C91A46EA0046DA
:1006400038E72E46284605E70646E3E61846F8E66C
:100650004B45A9D2B9EB020864EB0C0E0138A3E7B5
:100660004646EAE7204694E74046D1E7D0467BE796
:10067000023B614432E7304609E76444023842E70E
:10068000704700BFFEE7000008B5044A1388013335
:100690001380034804F0E0F9F7E700BF940000205E
:1006A000BC5B000830B58BB0002405940694079419
:1006B00008940994284BD3F8E02042F00102C3F8D3
:1006C000E020D3F8E02002F001020092009AD3F873
:1006D000E02042F00402C3F8E020D3F8E02002F06A
:1006E00004020192019AD3F8E02042F00202C3F81A
:1006F000E020D3F8E02002F002020292029AD3F83E
:10070000E02042F48072C3F8E020D3F8E02002F445
:1007100080720392039AD3F8E02042F08002C3F87B
:10072000E020D3F8E03003F080030493049B0B4DEA
:1007300022464FF40051284602F0EAF94FF40053E4
:100740000593012306930794089405A9284602F00F
:10075000CFF80BB030BD00BF004402580020025853
:1007600008B5084804F078F94FF40051064802F043
:10077000D5F9064A1388013313804FF4FA7002F05A
:1007800061FAEEE7C85B00080020025896000020DE
:1007900010B514460A2392B2024803F017F8204617
:1007A00010BD00BF9C00002008B50268034B9A42B0
:1007B00000D008BD02F034FAFBE700BF0010004093
:1007C00072B602E0134600221A80044A13880133ED
:1007D0009BB21380642BF8D9F4E700BF940000208B
:1007E00008B51548154B03604FF4E133436000230F
:1007F0008360C36003610C2242618361C361036251
:100800004362836203F0AFF870B900210A4803F035
:1008100022F958B90021084803F042F940B90648C6
:1008200003F0FAF830B908BDFFF7CAFFFFF7C8FFB9
:10083000FFF7C6FFFFF7C4FF9C0000200048004000
:1008400000B59DB04C22002109A804F0FDF820223B
:10085000002101A804F0F8F8042002F069F900234F
:100860000093264BDA6A22F00102DA62DB6A03F0B7
:1008700001030093224A936923F4404343F4004365
:100880009361936903F440430093009B1C4B9B6965
:1008900013F4005FFAD0032309934FF4A0230A93C3
:1008A00001230C9340230D930223129313931722D9
:1008B0001492B122159216930423179318930023D0
:1008C00019931A931B9309A800F0A8F988B93F233C
:1008D00001930023029303930493059306930793D4
:1008E0000893012101A800F0EDFD20B91DB05DF8CD
:1008F00004FBFFF765FFFFF763FF00BF000400582C
:100900000048025810B596B002F05CF9FFF798FF66
:100910004FF6FF7300E01346274A126812F4004FA7
:1009200003D15A1E002BF6DC1346002B42DBFFF7E7
:10093000B9FEFFF755FF214804F014F9204C0DF1E2
:100940003C0CA646BEE80F00ACE80F009EE807008E
:100950008CE8070000210FA803F0FFFC194B18607A
:100960000DF1200C04F11C0EBEE80F00ACE80F00E6
:100970009EE807008CE80700002108A803F0EDFCC2
:10098000114B18600DF1040E04F1380CBCE80F0097
:10099000AEE80F009CE807008EE80700012101A8DF
:1009A00003F0DBFC094B186003F0D2FC084804F0AC
:1009B00053F8FBE7FFF704FF00440258D45B00083C
:1009C0004C5B00089800002030010020340100201A
:1009D000E85B0008034B0360034B0B60802313604C
:1009E000704700BF3803002038010020FEE7FEE713
:1009F000FEE7FEE7FEE7704708B5024802F08AF915
:100A000008BD00BFB807002000B583B00A4BD3F87B
:100A1000F42042F00202C3F8F420D3F8F43003F0DB
:100A200002030193019B00220F216FF0010000F0EF
:100A3000B1F803B05DF804FB0044025810B5B8B03B
:100A40000446002133913491359136913791C0227B
:100A500002A803F0F9FF22681B4B9A4201D038B07C
:100A600010BD02220023CDE9022302A800F0F0FF0E
:100A700038BB164BD3F8E82042F48022C3F8E820B4
:100A8000D3F8E82002F480220092009AD3F8E02004
:100A900042F00202C3F8E020D3F8E03003F0020392
:100AA0000193019B4FF4406333930223349300235B
:100AB000359336930723379333A9054801F018FF80
:100AC000CDE7FFF77DFED4E7004800400044025820
:100AD000000402580F2801D90120704710B58AB0D0
:100AE000044600220146362000F054F8362000F07B
:100AF00087F81A4B1C601A4BD3F8E82042F010021A
:100B0000C3F8E820D3F8E83003F010030093009B0B
:100B100001A902A800F066FE079BBBB900F03EFEEB
:100B200003461048A0FB03239B0C013B0E480F4AD1
:100B3000026040F2E732C2604360002303618360D9
:100B400002F030FA30B101200AB010BD00F026FEEC
:100B50004300E6E7044802F091F8F5E704000020BE
:100B60000044025883DE1B43B807002000100040F9
:100B70000649CB6823F4E0631B041B0C000200F45D
:100B8000E0600343024A1A43CA60704700ED00E088
:100B90000000FA0500B5174BDB68C3F30223C3F16D
:100BA000070CBCF1040F28BF4FF0040C03F1040E36
:100BB000BEF1060F14D9033B4FF0FF3E0EFA0CFCBA
:100BC00021EA0C0199400EFA03F322EA03031943C8
:100BD000002807DB0901C9B2074B19545DF804FB73
:100BE0000023E9E700F00F000901C9B2034B1954D3
:100BF000F4E700BF00ED00E000E400E014ED00E0E9
:100C0000002807DB00F01F02400901239340024A3D
:100C100042F82030704700BF00E100E0002800F0FB
:100C2000398338B50446036813F0010F25D0944A80
:100C3000136903F03803926A102B15D0182B0FD0CC
:100C40006368B3F5803F3FD0002B53D18C4B1A68BB
:100C500022F480321A601A6822F480221A6038E086
:100C600002F00302022AEBD1854B1B6813F4003F0C
:100C700003D06368002B00F00F83236813F0020F8A
:100C800000F0A1807E4A1369926A13F038035AD0AB
:100C9000182B55D0E368002B00F0DE8078490A68F5
:100CA00022F0190213430B6001F0C6FF0546744B96
:100CB0001B6813F0040F40F0AD8001F0BDFF401B36
:100CC0000228F4D90320EEE26D4A136843F480331E
:100CD000136063682BB301F0AFFF0546684B1B68D8
:100CE00013F4003FC9D101F0A7FF401B6428F5D9D8
:100CF0000320D8E2B3F5A02F09D0614B1A6822F483
:100D000080321A601A6822F480221A60E1E75C4B94
:100D10001A6842F480221A601A6842F480321A601B
:100D2000D7E701F089FF0546554B1B6813F4003FD8
:100D3000A3D001F081FF401B6428F5D90320B2E263
:100D400012F0030FA6D14E4B1B6813F0040F03D013
:100D5000E368002B00F0A282494A136823F01903CC
:100D6000E1680B43136001F067FF0546444B1B68C5
:100D700013F0040F06D101F05FFF401B0228F5D9E4
:100D8000032090E201F072FF41F20303984212D86F
:100D90002269402A07D03A494B6823F47C3343EA5E
:100DA00002334B600FE0364A536823F47C3343F43C
:100DB0000033536007E0324A536823F0FE43216951
:100DC00043EA01635360236813F0100F00F088803A
:100DD0002B4A136903F03803926A082B56D0182B5C
:100DE00050D0E369002B00F0B880254A136843F027
:100DF0008003136001F020FF0546214B1B6813F4AC
:100E0000807F40F0888001F017FF401B0228F4D952
:100E1000032048E201F02AFF41F20303984212D86E
:100E20002269402A07D016494B6823F47C3343EAF1
:100E300002334B60C7E7124A536823F47C3343F410
:100E400000335360BFE70E4A536823F0FE43216925
:100E500043EA01635360B6E7094A136823F00103CC
:100E6000136001F0E9FE0546054B1B6813F0040F03
:100E7000A9D001F0E1FE401B0228F5D9032012E2BF
:100E80000044025802F00302012AAAD1A14B1B68B8
:100E900013F4807F03D0E369802B40F0018201F0DE
:100EA000E5FE41F20303984212D8226A202A07D0B5
:100EB00098494B6823F0F84343EA82634B600FE0A4
:100EC000944A536823F0F84343F08043536007E0AB
:100ED000904AD36823F07C53216A43EA0163D360CC
:100EE000236813F0080F60D06369002B49D0894A4A
:100EF000536F43F00103536701F09EFE0546854B97
:100F00005B6F13F0020F50D101F096FE401B0228D8
:100F1000F5D90320C7E101F0A9FE41F2030398428D
:100F200012D8226A202A07D07A494B6823F0F84366
:100F300043EA82634B60D3E7764A536823F0F84371
:100F400043F080435360CBE7724AD36823F07C536D
:100F5000216A43EA0163D360C2E76E4A136823F053
:100F60008003136001F068FE05466A4B1B6813F4AA
:100F7000807FB5D001F060FE401B0228F5D9032028
:100F800091E1644A536F23F00103536701F054FE6B
:100F90000546604B5B6F13F0020F06D001F04CFE6C
:100FA000401B0228F5D903207DE1236813F0200FB0
:100FB00029D0A3699BB1574A136843F48053136047
:100FC00001F03AFE0546534B1B6813F4005F1AD13B
:100FD00001F032FE401B0228F5D9032063E14D4A9F
:100FE000136823F48053136001F026FE0546494B35
:100FF0001B6813F4005F06D001F01EFE401B0228A0
:10100000F5D903204FE1236813F0040F21D1636A5F
:10101000002B00F047813F4A126902F03802182A7B
:1010200000F0EE80022B79D03A4A136823F08073E7
:10103000136001F001FE0446364B1B6813F0007F7D
:1010400000F0DC8001F0F8FD001B0228F4D9032039
:1010500029E1314A136843F48073136001F0ECFD19
:1010600005462D4B1B6813F4807F06D101F0E4FD8B
:10107000401B6428F5D9032015E1A368012B0AD091
:101080000BBB244B1A6F22F001021A671A6F22F071
:1010900004021A6704E01F4A136F43F00103136749
:1010A000A36833B301F0C8FD05461A4B1B6F13F05C
:1010B000020FACD101F0C0FD401B41F288339842D1
:1010C000F3D90320EFE0052B09D0124B1A6F22F061
:1010D00001021A671A6F22F004021A67E0E70D4B4B
:1010E0001A6F42F004021A671A6F42F001021A677F
:1010F000D6E701F0A1FD0546064B1B6F13F0020F6A
:1011000085D001F099FD401B41F288339842F3D914
:101110000320C8E00044025800480258694A136896
:1011200023F08073136001F087FD0546654B1B6853
:1011300013F0007F06D001F07FFD401B0228F5D997
:101140000320B0E05F4B996A5F4A0A40A16AE06AF7
:1011500041EA00110A439A62226B013AC2F3080283
:10116000616B0139490289B20A43A16B0139090453
:1011700001F4FE010A43E16B0139090601F0FE4169
:101180000A431A63DA6A22F00102DA62596B4F4AA3
:101190000A40A16C42EAC1025A63DA6A22F00C02E8
:1011A000216C0A43DA62DA6A22F00202616C0A43B5
:1011B000DA62DA6A42F48032DA62DA6A42F40032DF
:1011C000DA62DA6A42F48022DA62DA6A42F0010212
:1011D000DA621A6842F080721A6001F02DFD04464E
:1011E000384B1B6813F0007F06D101F025FD001B72
:1011F0000228F5D9032056E0002054E0002052E0F8
:10120000304A916A106B012B4ED001F00303A26AA1
:1012100093424BD1C1F30511E36A994248D1C0F31F
:101220000802236B013B9A4244D1C0F34622636B10
:10123000013B9A4240D1C0F30642A36B013B9A4264
:101240003CD1C0F30660E36B013B984238D11D4BA3
:101250005B6BC3F3CC03A26C9A4201D1002022E065
:10126000184AD36A23F00103D36201F0E5FC054676
:1012700001F0E2FCA842FBD0124A516B134B0B4029
:10128000A16C43EAC1035363D36A43F00103D36201
:10129000002008E001207047012004E0012002E066
:1012A000012000E0002038BD0120FCE70120FAE722
:1012B0000120F8E70120F6E70120F4E70120F2E73A
:1012C0000120F0E7004402580CFCFFFF0700FFFF7D
:1012D000744B1B6903F03803102B00F0DE80182BD1
:1012E00010D00BB1704870476E4B1B6813F0200F85
:1012F00000F0D5806B4B1868C0F3C1006B4B23FA2C
:1013000000F0704710B4674A916A01F00301946AD3
:10131000C4F30510D36A03F0010C536BC3F3CC0381
:101320000CFB03F307EE903AF8EE677A14F47C7F37
:1013300000F09380012965D0022900F09180E1B18D
:1013400007EE100AF8EE476A9FED596A86EE267A94
:10135000544B1B6BC3F3080306EE903AF8EE666A33
:101360009FED546A67EE867A76EEA77AF7EE006A0A
:1013700077EEA67A27EE277A60E0136813F0200F45
:1013800023D011461268C2F3C102484BD34007EE86
:10139000103AF8EE476A07EE100AB8EE476A86EE92
:1013A000867A0B6BC3F3080306EE903AF8EE666A92
:1013B0009FED406A67EE867A76EEA77AF7EE006ACE
:1013C00077EEA67A27EE277A38E007EE100AF8EED5
:1013D000476A9FED396A86EE267A324B1B6BC3F360
:1013E000080306EE903AF8EE666A9FED326A67EE01
:1013F000867A76EEA77AF7EE006A77EEA67A27EE7F
:10140000277A1BE007EE100AF8EE476A9FED286A7C
:1014100086EE267A234B1B6BC3F3080306EE903A45
:10142000F8EE666A9FED236A67EE867A76EEA77A13
:10143000F7EE006A77EEA67A27EE277A194B1B6B38
:10144000C3F34623013307EE903AF8EE677AC7EE0E
:10145000276AFCEEE67A17EE900A5DF8044B7047B7
:1014600007EE100AF8EE476A9FED146A86EE267AB8
:101470000C4B1B6BC3F3080306EE903AF8EE666A5A
:101480009FED0C6A67EE867A76EEA77AF7EE006A31
:1014900077EEA67A27EE277AD0E709487047034807
:1014A000704700BF0044025800093D000090D0037F
:1014B0000024744A000000390024744C20BCBE4B48
:1014C00040787D01002800F0328170B50D46044659
:1014D0009B4B1B6803F00F038B420BD2984A136897
:1014E00023F00F030B431360136803F00F038B42C9
:1014F00040F01F81236813F0040F0CD02269914B38
:101500009B6903F070039A4205D98E498B6923F0D9
:1015100070031A438A61236813F0080F0CD06269C4
:10152000884BDB6903F070039A4205D98549CB6982
:1015300023F070031A43CA61236813F0100F0CD014
:10154000A269804BDB6903F4E0639A4205D97D49C7
:10155000CB6923F4E0631A43CA61236813F0200FB8
:101560000CD0E269774B1B6A03F070039A4205D9ED
:1015700074490B6A23F070031A430A62236813F05C
:10158000020F0CD0E2686F4B9B6903F00F039A4285
:1015900005D96C498B6923F00F031A438A612368CC
:1015A00013F0010F41D0674A936923F47063A16877
:1015B0000B4393616368022B0AD0032B27D0012BC6
:1015C0002CD0604A126812F0040F06D10120ADE061
:1015D000126812F4003F00F0AE805A490A6922F006
:1015E000070213430B6101F027FB0646554B1B69AD
:1015F00003F038036268B3EBC20F16D001F01CFB96
:10160000801B41F288339842F0D903208EE04D4A86
:10161000126812F0007FE0D1012087E0494A126889
:1016200012F4807FD9D1012080E0236813F0020FEB
:101630000CD0E268434B9B6903F00F039A4205D23A
:1016400040498B6923F00F031A438A613C4B1B68A6
:1016500003F00F03AB420AD9394A136823F00F0392
:101660002B431360136803F00F03AB4265D123686B
:1016700013F0040F0CD02269324B9B6903F0700306
:101680009A4205D22F498B6923F070031A438A616D
:10169000236813F0080F0CD062692A4BDB6903F052
:1016A00070039A4205D22749CB6923F070031A438D
:1016B000CA61236813F0100F0CD0A269214BDB69BB
:1016C00003F4E0639A4205D21E49CB6923F4E06338
:1016D0001A43CA61236813F0200F0CD0E269194B3A
:1016E0001B6A03F070039A4205D216490B6A23F075
:1016F00070031A430A62FFF7EBFD12498B69C3F3CB
:101700000323114AD35C03F01F03D8408B6903F015
:101710000F03D35C03F01F0320FA03F30B4A13609B
:101720000B4B18600B4B1868FFF7D4F970BD012004
:1017300070470120FAE70120F8E70120F6E700BF33
:101740000020005200440258285C00080C000020D1
:10175000080000200400002008B5FFF7B9FD0B4A7F
:101760009369C3F303230A49CB5C03F01F0320FAF8
:1017700003F3926902F00F02885C00F01F0023FA65
:1017800000F0044A1060044A136008BD0044025887
:10179000285C00080C0000200800002008B5FFF7B6
:1017A000DBFF054BDB69C3F30213044AD35C03F090
:1017B0001F03D84008BD00BF00440258285C000841
:1017C00008B5FFF7C9FF054BDB69C3F30223044AE1
:1017D000D35C03F01F03D84008BD00BF004402588B
:1017E000285C00083F230360114B1A6902F00702CE
:1017F00042609A6902F4706282609A6902F00F0294
:10180000C2609A6902F070020261DA6902F0700245
:101810004261DA6902F4E06282611B6A03F07003DC
:10182000C361044B1B6803F00F030B60704700BFDC
:101830000044025800200052404B9B6A03F003030F
:10184000032B79D070B505460E463C4A136823F049
:101850008063136001F0F0F90446384B1B6813F005
:10186000006F06D001F0E8F9031B022BF5D9032025
:1018700070BD324B9A6A22F47C32296842EA013206
:101880009A626A68013AC2F30802A96801394902FA
:1018900089B20A43E9680139090401F4FE010A43E7
:1018A00029690139090601F0FE410A439A63DA6A9F
:1018B00022F0C00269690A43DA62DA6A22F0200281
:1018C000A9690A43DA62DA6A22F01002DA62D96B95
:1018D0001B4A0A40E96942EAC102DA63DA6A42F065
:1018E0001002DA62C6B91A46DB6A43F40023D362F7
:1018F000124A136843F08063136001F09DF90446B7
:101900000E4B1B6813F0006F14D101F095F9001B0A
:101910000228F5D90320ABE7012E05D0074AD36A88
:1019200043F40013D362E3E7044AD36A43F4801319
:10193000D362DDE700209BE7012070470044025896
:101940000700FFFF404B9B6A03F00303032B79D092
:1019500070B505460E463C4A136823F08053136069
:1019600001F06AF90446384B1B6813F0005F06D09B
:1019700001F062F9031B022BF5D9032070BD324B35
:101980009A6A22F07C72296842EA01529A626A6875
:10199000013AC2F30802A9680139490289B20A432F
:1019A000E9680139090401F4FE010A432969013992
:1019B000090601F0FE410A431A64DA6A22F4406221
:1019C00069690A43DA62DA6A22F40072A9690A4391
:1019D000DA62DA6A22F48072DA62596C1B4A0A40CF
:1019E000E96942EAC1025A64DA6A42F48072DA6250
:1019F000C6B91A46DB6A43F48003D362124A1368FD
:101A000043F08053136001F017F904460E4B1B6836
:101A100013F0005F14D101F00FF9001B0228F5D973
:101A20000320ABE7012E05D0074AD36A43F0807349
:101A3000D362E3E7044AD36A43F40003D362DDE7E9
:101A400000209BE701207047004402580700FFFF79
:101A5000F8B50446036813F0006F30D0836EB3F519
:101A6000001F26D00ED8EBB1B3F5801F07D102219D
:101A70000830FFF7E1FE054645B12E4621E001267C
:101A800035461EE0B3F5401F09D10025984A136D75
:101A900023F44013A16E0B431365002611E00126C9
:101AA00035460EE0924AD36A43F40033D3620025F0
:101AB000ECE702212830FFF745FF0546DCE700266A
:101AC0003546236813F4807F14D0A36D042B32D8DD
:101AD000DFE803F003232A080800854AD36A43F4A9
:101AE0000033D36255BB824A136D23F00703A16D07
:101AF0000B431365236813F4007F31D0E36D802B13
:101B00004CD020D8002B43D0402B19D1002104F118
:101B10000800FFF791FE05461AE0002104F10800D5
:101B2000FFF78AFE0546DDE7002104F12800FFF7F4
:101B300009FF0546D6E701263546DBE72E46D9E7FD
:101B4000012635460CE0C02B02D0B3F5807F1CD1B6
:101B50005DBB674A136D23F4E073E16D0B431365BE
:101B6000236813F4806F46D0D4F8A830B3F5800F03
:101B700039D01FD88BB3B3F5001F18D1002104F161
:101B80000800FFF759FE05461AE001263546E7E74B
:101B9000574AD36A43F40033D362D9E7002104F1F2
:101BA0002800FFF7CFFE0546D2E72E46D8E70126EC
:101BB000354620E0B3F5C00F02D0B3F5000F09D1D0
:101BC000C5B94B4A936D23F46003D4F8A8100B43B6
:101BD000936510E0012635460DE0454AD36A43F48B
:101BE0000033D362ECE7002104F12800FFF7AAFEDE
:101BF0000546E5E72E46236813F4006F24D0D4F899
:101C0000AC30B3F1007F42D00ED8002B39D0B3F105
:101C1000807F06D1002104F10800FFF70DFE054684
:101C200008E0012635460FE0B3F1407F02D0B3F162
:101C3000806F23D1002D31D12D4A936D23F0E063C5
:101C4000D4F8AC100B439365236813F0007F2ED0BB
:101C5000E36C202B40D026D833B1102B20D1244A5E
:101C6000D36A43F40033D362002D3CD1204AD36CB5
:101C700023F03003E16C0B43D36418E001263546B2
:101C8000E2E71B4AD36A43F40033D362D2E7002170
:101C900004F12800FFF756FE0546CBE72E46D3E7B2
:101CA0000126354603E0302BDED001263546236879
:101CB00013F4805F2DD0236EB3F5005F4FD019D899
:101CC000002B46D0B3F5805F0FD1002104F108004E
:101CD000FFF7B2FD054613E0022104F10800FFF70B
:101CE000ABFD0546C0E72E46E1E70126354610E08C
:101CF00000440258B3F5405F02D0B3F5804F25D1C0
:101D0000002D33D1774A136D23F4E043216E0B434A
:101D10001365236813F4005F38D0636EB3F5003F9A
:101D200053D028D843B1B3F5803F21D1012104F12C
:101D30000800FFF781FD0546002D4DD1694A136D5E
:101D400023F4E023616E0B4313651FE00126354643
:101D5000DFE7644AD36A43F40033D362D0E700215B
:101D600004F12800FFF7EEFD0546C9E72E46D0E74F
:101D7000012635460AE0B3F5802FDDD0B3F5A02F5C
:101D8000DAD0B3F5403FD7D001263546236813F4A7
:101D9000804F31D0D4F8B030B3F1005F45D020D8B7
:101DA00043B1B3F1805F19D1012104F10800FFF7BD
:101DB00043FD0546002D3FD14A4A936D23F0E04391
:101DC000D4F8B0100B43936516E0012104F128000C
:101DD000FFF7B8FD0546AFE72E46D7E701263546A3
:101DE0000AE0B3F1804FE5D0B3F1A04FE2D0B3F1F8
:101DF000405FDFD001263546236813F4004F09D039
:101E0000236FB3F1805F19D0B3F1005F24D0D3B159
:101E100001263546236813F0807F33D0A36C032B53
:101E20005BD8DFE803F027225327012104F12800C3
:101E3000FFF788FD0546BDE72E46DDE7294AD36A50
:101E400043F40033D36275B9264A136D23F040532F
:101E5000216F0B431365DDE7012104F10800FFF753
:101E6000EBFC0546EFE72E46D4E71E4AD36A43F45F
:101E70000033D362A5BB1B4AD36C23F00303A16CD0
:101E80000B43D364236813F4800F2DD1236813F020
:101E9000010F00F0A580E36F282B00F29F80DFE8A0
:101EA00003F08D9D9D9D9D9D9D9D879D9D9D9D9DCF
:101EB0009D9D969D9D9D9D9D9D9D8D9D9D9D9D9D69
:101EC0009D9D8D9D9D9D9D9D9D9D8D00022104F15B
:101ED0000800FFF7B1FC0546CCE701263546D1E7FF
:101EE0002E46CFE700440258914A136843F48073AA
:101EF000136000F0A1FE07468D4B1B6813F4807F32
:101F000005D100F099FEC01B6428F5D90325002DEA
:101F10004AD1884B1B6FD4F8B420534013F4407F50
:101F20000CD0844B1A6F22F44072196F41F4803147
:101F30001967196F21F4803119671A67D4F8B43022
:101F4000B3F5807F15D08DBBD4F8B43003F4407264
:101F5000B2F5407F1ED0774A136923F47C53136196
:101F600074490B6FD4F8B420C2F30B0213430B6710
:101F70008CE700F061FE07466E4B1B6F13F0020FFB
:101F8000E1D100F059FEC01B41F288339842F3D9E9
:101F90000325D8E76748026922F47C52664901EAC2
:101FA000131313430361DBE72E466FE72E466DE7FD
:101FB000012104F10800FFF73FFC0546E5B95D4A41
:101FC000536D23F03803E16F0B43536508E00121A3
:101FD00004F12800FFF7B6FC0546EFE70126354679
:101FE000236813F0020F17D0A36F052B28D8DFE862
:101FF00003F00B05200B0B0B2E46F1E7012104F13A
:102000000800FFF719FC0546EDB94A4A536D23F065
:102010000703A16F0B435365236813F0040F23D00C
:10202000D4F89430052B45D8DFE803F0150F3D15A3
:102030001515012104F12800FFF784FC0546E3E7AC
:1020400001263546E8E72E46E6E7012104F10800BF
:10205000FFF7F2FB054685BB364A936D23F0070375
:10206000D4F894100B439365236813F0200F34D0F9
:10207000D4F89030B3F1005F4ED023D843B1B3F120
:10208000805F1CD1002104F10800FFF7D5FB054655
:10209000002D48D1274A536D23F0E043D4F8901027
:1020A0000B43536519E0012104F12800FFF74AFCB6
:1020B0000546D0E701263546D6E72E46D4E7012669
:1020C00035460AE0B3F1804FE2D0B3F1A04FDFD044
:1020D000B3F1405FDCD001263546236813F0400F92
:1020E00037D0D4F89C30B3F5006F53D026D843B125
:1020F000B3F5806F19D1002104F10800FFF79CFBB4
:102100000546002D4DD10B4A936D23F4E053D4F8CE
:102110009C100B4393651CE0022104F12800FFF79B
:1021200011FC0546B4E72E46D7E70126354610E0F8
:102130000048025800440258CFFFFF00B3F5805F0B
:10214000DFD0B3F5A05FDCD0B3F5406FD9D0012666
:102150003546236813F0800F33D0D4F8A030B3F5A0
:10216000804F00F0A38021D843B1B3F5005F1AD1AE
:10217000002104F10800FFF75FFB0546002D40F049
:102180009C80814A936D23F46043D4F8A0100B43E4
:10219000936516E0022104F12800FFF7D3FB054602
:1021A000AFE72E46D5E7012635460AE0B3F5004FE6
:1021B000E4D0B3F5204FE1D0B3F5C04FDED0012617
:1021C0003546236813F0080F0CD0D4F88430B3F5EB
:1021D000805F74D06C4A536D23F44053D4F884105C
:1021E0000B435365236813F0100F0CD0D4F89830CC
:1021F000B3F5807F6CD0644A936D23F44073D4F8B8
:1022000098100B439365236813F4002F0BD0D4F878
:10221000A430B3F5803F74D0B3F5003F67D0002BF6
:102220005FD001263546236813F4802F0CD0D4F8F4
:102230008830B3F5001F7CD0B3F5401F6FD0B3F5E5
:10224000801F67D001263546236813F4803F08D0ED
:10225000236D002B76D0B3F5803F00F081800126FE
:102260003546236813F0005F40F08380236813F441
:10227000003F00F08E80D4F88030B3F5807F00F00E
:10228000EC8040F28380B3F5007F03D0B3F5407F4C
:1022900040F0E180002D40F0E6803B4A536D23F48E
:1022A0004073D4F880100B43536572E0022104F1AF
:1022B0002800FFF747FB054660E72E4681E702212D
:1022C00004F12800FFF73EFB002883D0012681E7B8
:1022D000022104F12800FFF735FB00288BD00126EE
:1022E00089E7002104F10800FFF7A6FA05467DB949
:1022F000254A936D23F44033D4F8A4100B4393651F
:1023000091E7022104F12800FFF71CFB0546EEE7E8
:102310002E4688E71C4AD36A43F40033D3627DB962
:10232000194A536D23F44013D4F888100B435365B6
:102330008AE7012104F12800FFF704FB0546EEE7D8
:102340002E4681E7104AD36A43F40033D36275B94D
:102350000D4AD36C23F48033216D0B43D36480E7A3
:10236000022104F10800FFF767FA0546EFE72E4661
:1023700077E7022104F12800FFF7E4FA00283FF490
:1023800075AF012672E700BF00440258002B81D0D0
:102390000126236813F4801F06D04F4A136D23F0E3
:1023A0000043616F0B431365236813F0805F07D010
:1023B000494A136923F48043D4F8B8100B431361DE
:1023C000236813F4001F06D0434A136D23F0807373
:1023D000E16E0B431365236813F0804F09D03E4B29
:1023E0001A6922F400421A611A69D4F8BC100A432F
:1023F0001A612368002B06DA374AD36C23F0405366
:10240000616D0B43D364236813F4000F07D0324A85
:10241000536D23F44003D4F88C100B435365636869
:1024200013F0010F21D1636813F0020F26D1636806
:1024300013F0040F2BD1636813F0080F30D16368D9
:1024400013F0100F35D1636813F0200F3AD106B1A5
:1024500001263046F8BD01269BE71F4AD36A43F4A4
:102460000033D36216E72E4693E7002104F10800FB
:10247000FFF7E2F90028D6D00646D4E7012104F19F
:102480000800FFF7D9F90028D1D00646CFE702218E
:1024900004F10800FFF7D0F90028CCD00646CAE7BF
:1024A000002104F12800FFF74DFA0028C7D00646A6
:1024B000C5E7012104F12800FFF744FA0028C2D043
:1024C0000646C0E7022104F12800FFF73BFA002886
:1024D000BDD00646BBE700BF0044025808B5FFF771
:1024E0003BF9054B1B6AC3F30213044AD35C03F0A8
:1024F0001F03D84008BD00BF00440258285C0008F4
:1025000010B5774A916A946AC4F3053ED36AC3F35F
:10251000001CD36BC3F3CC030CFB03F314F47C3F1C
:1025200000F0D88001F0030107EE903AF8EE677AE8
:10253000012965D0022900F0B080E1B107EE10EA70
:10254000B8EE477A9FED676AC6EE076A644B9B6BED
:10255000C3F3080307EE103AB8EE477A9FED626ABC
:1025600067EE867A77EE277AB7EE007A77EE877A8B
:1025700066EEA76A60E0136813F0200F23D01146BF
:102580001268C2F3C102594BD34007EE103AB8EEBD
:10259000477A06EE90EAB8EE666AC7EE066A8B6B7B
:1025A000C3F3080307EE103AB8EE477A9FED4E6A80
:1025B00067EE867A77EE277AB7EE007A77EE877A3B
:1025C00066EEA76A38E007EE10EAB8EE477A9FEDAC
:1025D000486AC6EE076A424B9B6BC3F3080307EEDB
:1025E000103AB8EE477A9FED406A67EE867A77EE4A
:1025F000277AB7EE007A77EE877A66EEA76A1BE055
:1026000007EE10EAB8EE477A9FED366AC6EE076A23
:10261000334B9B6BC3F3080307EE103AB8EE477ACF
:102620009FED316A67EE867A77EE277AB7EE007A09
:1026300077EE877A66EEA76A294A936BC3F346233F
:1026400007EE103AB8EE477AB7EE006A37EE067A30
:10265000C6EE877AFCEEE77AC0ED007A936BC3F39F
:10266000064307EE103AB8EE477A37EE067AC6EE22
:10267000877AFCEEE77AC0ED017A936BC3F30663C9
:1026800007EE903AF8EE677A77EE867A86EEA77ACA
:10269000BCEEC77A80ED027A10BD07EE10EAB8EE04
:1026A000477A9FED146AC6EE076A0D4B9B6BC3F326
:1026B000080307EE103AB8EE477A9FED0B6A67EE13
:1026C000867A77EE277AB7EE007A77EE877A66EE2B
:1026D000A76AB1E70023036043608360DCE700BFC3
:1026E000004402580024744A000000390090D003CE
:1026F0000024744C20BCBE4B10B5774A916A946A92
:10270000C4F3055ED36AC3F3002C536CC3F3CC034C
:102710000CFB03F314F07C7F00F0D88001F0030180
:1027200007EE903AF8EE677A012965D0022900F0A9
:10273000B080E1B107EE10EAB8EE477A9FED676A24
:10274000C6EE076A644B1B6CC3F3080307EE103A2E
:10275000B8EE477A9FED626A67EE867A77EE277A5F
:10276000B7EE007A77EE877A66EEA76A60E01368C4
:1027700013F0200F23D011461268C2F3C102594B47
:10278000D34007EE103AB8EE477A06EE90EAB8EE7C
:10279000666AC7EE066A0B6CC3F3080307EE103ACD
:1027A000B8EE477A9FED4E6A67EE867A77EE277A23
:1027B000B7EE007A77EE877A66EEA76A38E007EE22
:1027C00010EAB8EE477A9FED486AC6EE076A424BB8
:1027D0001B6CC3F3080307EE103AB8EE477A9FED7F
:1027E000406A67EE867A77EE277AB7EE007A77EE60
:1027F000877A66EEA76A1BE007EE10EAB8EE477A22
:102800009FED366AC6EE076A334B1B6CC3F30803B1
:1028100007EE103AB8EE477A9FED316A67EE867A96
:1028200077EE277AB7EE007A77EE877A66EEA76AB8
:10283000294A136CC3F3462307EE103AB8EE477AE1
:10284000B7EE006A37EE067AC6EE877AFCEEE77AD4
:10285000C0ED007A136CC3F3064307EE103AB8EEEE
:10286000477A37EE067AC6EE877AFCEEE77AC0ED55
:10287000017A136CC3F3066307EE903AF8EE677AB9
:1028800077EE867A86EEA77ABCEEC77A80ED027A7A
:1028900010BD07EE10EAB8EE477A9FED146AC6EE57
:1028A000076A0D4B1B6CC3F3080307EE103AB8EE32
:1028B000477A9FED0B6A67EE867A77EE277AB7EE56
:1028C000007A77EE877A66EEA76AB1E700230360A5
:1028D00043608360DCE700BF004402580024744A70
:1028E000000000390090D0030024744C20BCBE4B83
:1028F000F0B583B000236BE085685E000324B4402C
:1029000025EA0405CC68B4402C438460446824EA7A
:102910000C0C4C68C4F300149C4044EA0C04446062
:1029200068E0DD08083550F8256003F007044FEA39
:10293000840C0F2404FA0CF426EA040E0C6904FA41
:102940000CF444EA0E0440F825406BE0092400E052
:10295000002404FA0EF42C430CF1020C694D45F8E6
:102960002C404FF0B0442568D44325EA02064F6856
:1029700017F4801F01D042EA05064FF0B0452E60E3
:102980006D6804EA05064F6817F4001F01D042EA9B
:1029900005064FF0B0456E60D5F8845004EA050690
:1029A0004F6817F4003F01D042EA05064FF0B045EA
:1029B000C5F88460D5F880502C404E6816F4803FEE
:1029C00001D042EA05044FF0B042C2F88040013322
:1029D0000A6832FA03F400F092804FF0010C0CFA0E
:1029E00003FC1CEA0202F2D04C6804F00304013C30
:1029F000012C81D94C6804F00304032C0CD0C4686A
:102A00005D004FF0030C0CFA05FC24EA0C0C8C68FA
:102A1000AC4044EA0C04C4604C6804F00304022C8B
:102A20003FF47FAF04684FEA430E4FF0030C0CFAFB
:102A30000EFC24EA0C0C4C6804F0030404FA0EF4B7
:102A400044EA0C0404604C6814F4403FBFD02E4CA0
:102A5000D4F8F45045F00205C4F8F450D4F8F4402A
:102A600004F002040194019C4FEA930C0CF102055E
:102A7000244C54F8255003F003044FEA840E0F242D
:102A800004FA0EF425EA0405204CA0423FF460AF9E
:102A900004F58064A04222D004F58064A04220D0D6
:102AA00004F58064A0421ED004F58064A0421CD0CE
:102AB00004F58064A0421AD004F58064A04218D0C6
:102AC00004F58064A04216D004F58064A04214D0BE
:102AD00004F58064A0423FF439AF0A2439E70124A9
:102AE00037E7022435E7032433E7042431E70524DC
:102AF0002FE706242DE707242BE7082429E703B056
:102B0000F0BD00BF00040058004402580000025805
:102B10000AB181617047090481617047436901EA24
:102B2000030221EA030141EA02418161704700008A
:102B300038B50446224BDB6803F00703062B07D0A9
:102B40001F4BDB6803F03F03834236D0012038BDC2
:102B50001B4AD36823F03F030343D36000F06CF8B3
:102B60000546174B5B6813F4005F07D100F064F86B
:102B7000431BB3F57A7FF4D90120E8E72E2C18BF68
:102B80001E2C08D02D2C14BF002301231D2C02D095
:102B90000BB90020DBE700F04FF80446084BDB6878
:102BA00013F4803F07D100F047F8001BB0F57A7F9F
:102BB000F4D90120CBE70020C9E70020C7E700BF18
:102BC0000048025810B50320FDF7D2FFFEF780FB46
:102BD0000F498B69C3F303230E4AD35C03F01F0331
:102BE000D8408B6903F00F03D35C03F01F0320FA76
:102BF00003F3094A1360094B18600F20FDF76AFFC1
:102C000010B10124204610BD0446FDF7FDFEF9E792
:102C100000440258285C00080C0000200800002036
:102C2000034B1B78034A11680B441360704700BFC5
:102C30000000002004080020014B1868704700BF06
:102C40000408002038B50446FFF7F6FF0546B4F146
:102C5000FF3F02D0044B1B781C44FFF7EDFF401BE5
:102C6000A042FAD338BD00BF00000020014B186815
:102C7000000C70470010005C7047000090F83D3079
:102C8000DBB2012B3AD1022380F83D300268D368D1
:102C900043F00103D36003681A4AB3F1804F18BFB1
:102CA00093421DD0A2F57C42934219D002F5806276
:102CB000934215D002F58062934211D002F578421A
:102CC00093420DD0A2F56C42934209D002F59432A2
:102CD000934205D01A6842F001021A600020704742
:102CE0009968094A0A40062A18BFB2F5803F07D002
:102CF0001A6842F001021A600020704701207047F4
:102D00000020704700000140070001007047704735
:102D10007047704770B504460368DE681D6915F09A
:102D2000020F10D016F0020F0DD06FF002021A61E0
:102D30000123037703689B6913F0030F64D0FFF747
:102D4000E6FF0023237715F0040F12D016F0040FCE
:102D50000FD023686FF004021A61022323772368DF
:102D60009B6913F4407F55D02046FFF7D0FF002326
:102D7000237715F0080F12D016F0080F0FD0236834
:102D80006FF008021A61042323772368DB6913F0CC
:102D9000030F46D02046FFF7BAFF0023237715F034
:102DA000100F12D016F0100F0FD023686FF0100222
:102DB0001A61082323772368DB6913F4407F37D037
:102DC0002046FFF7A4FF0023237715F0010F02D060
:102DD00016F0010F33D115F4025F02D016F0800F08
:102DE00035D115F4807F02D016F0800F37D115F061
:102DF000400F02D016F0400F39D115F0200F02D04D
:102E000016F0200F3BD170BDFFF780FF2046FFF783
:102E10007FFF96E72046FFF779FF2046FFF778FF10
:102E2000A5E72046FFF772FF2046FFF771FFB4E7E2
:102E30002046FFF76BFF2046FFF76AFFC3E72368D2
:102E40006FF001021A612046FDF7AEFCC3E723686C
:102E50006FF402521A61204600F0D5F8C1E72368EA
:102E60006FF480721A61204600F0CEF8BFE7236845
:102E70006FF040021A612046FFF74BFFBDE7236861
:102E80006FF020021A61204600F0BCF8BBE700009A
:102E900030B503683D4A904214BF4FF0000E4FF02A
:102EA000010EB0F1804F14BF72464EF00102AAB974
:102EB000374CA04214BF00240124364DA8420DD047
:102EC00064B904F1804404F58234A04214BF0024A4
:102ED000012405F50065A84200D01CB123F0700361
:102EE0004C68234312BB2A4A904214BF002201229D
:102EF000284CA0421AD0CAB902F1804202F58232AF
:102F0000904214BF0022012204F50064A0420DD0BB
:102F100062B9214A904214BF0022012204F59A347A
:102F2000A04203D012B91D4A904204D123F4407C40
:102F3000CB6843EA0C0323F080034A691343036020
:102F40008A68C2620A688262154A904214BF734658
:102F50004EF0010363B9104B984214BF00230123C4
:102F600002F57052904203D013B90C4B984201D134
:102F70000B69036301234361036913F0010F03D05D
:102F8000036923F00103036130BD00BF000001406D
:102F90000008004000040040004401400048014097
:102FA0000004014060B310B5044690F83D3013B3FF
:102FB000022384F83D30214651F8040BFFF768FFE7
:102FC000012384F8483084F83E3084F83F3084F898
:102FD000403084F8413084F8423084F8433084F83B
:102FE000443084F8453084F8463084F8473084F81B
:102FF0003D30002010BD80F83C30FFF73DFED7E7A4
:10300000012070477047704770470000026852E81F
:10301000003F23F4907342E800310029F6D10268A2
:1030200002F1080353E8001F0D4B0B40083242E841
:1030300000310029F3D1C36E012B06D02023C0F844
:103040008C300023C36643677047026852E8003F34
:1030500023F0100342E800310029F6D1EEE700BF6B
:10306000FEFFFFEF70B586B0044601688368026911
:10307000134342691343C26913430868884A0240F4
:1030800013430B602268536823F44053E1680B43F9
:103090005360A1692268834B9A4201D0236A194385
:1030A0009068814B03400B4393602268D36A23F0FE
:1030B0000F03616A0B43D36222687C4B9A4221D092
:1030C0007B4B9A4200F08C807A4B9A4200F0A280AF
:1030D000794B9A4200F0B580784B9A4200F0C88054
:1030E000774B9A4200F0F480764B9A4200F01981B7
:1030F000754B9A4200F02C816A4B9A4200F03F8156
:10310000802333E0714B5B6D03F03803282B65D8C7
:10311000DFE813F0290064006400640064006400C8
:10312000640064004D016400640064006400640095
:10313000640064002B0064006400640064006400A8
:10314000640064005E006400640064006400640065
:103150006400640060006400640064006400640053
:10316000640064006200012300E008234D498A42A4
:1031700000F02F81E069B0F5004F00F0AF81202B07
:1031800000F20782202B00F25182DFE813F01E02CA
:1031900024024F024F0227024F024F024F022C021D
:1031A0004F024F024F024F024F024F024F023102B5
:1031B0004F024F024F024F024F024F024F024F0287
:1031C0004F024F024F024F024F024F024F023D0289
:1031D0001023CBE72023C9E74023C7E78023C5E7B7
:1031E0003A4B5B6D03F00703052B11D8DFE813F0B2
:1031F0000600E10008000A000C000E000023B5E7FD
:103200000823B3E71023B1E72023AFE74023ADE75E
:103210008023ABE72D4B5B6D03F00703052B0ED826
:10322000DFE803F003C90507090B00239EE7082325
:103230009CE710239AE7202398E7402396E7802312
:1032400094E7224B5B6D03F00703052B0ED8DFE8F4
:1032500003F003B40507090B002387E7082385E77C
:10326000102383E7202381E740237FE780237DE746
:10327000164B5B6D03F00703052B0ED8DFE803F058
:10328000039F0507090B002370E708236EE710234F
:103290006CE720236AE7402368E7802366E700BFE6
:1032A000F369FFCF000C0058FFF4FF11001001403C
:1032B0000044004000480040004C004000500040E6
:1032C0000014014000780040007C00400044025897
:1032D0007D4B5B6D03F03803282B20D8DFE803F02B
:1032E000151F1F1F1F1F1F1F711F1F1F1F1F1F1FA6
:1032F000171F1F1F1F1F1F1F191F1F1F1F1F1F1FEC
:103300001B1F1F1F1F1F1F1F1D0001232EE7082348
:103310002CE710232AE7202328E7402326E78023F1
:1033200024E7694B5B6D03F00703052B0ED8DFE83C
:1033300003F0034A0507090B002317E7082315E7E5
:10334000102313E7202311E740230FE780230DE725
:103350005D4B5B6D03F00703052B0ED8DFE803F030
:1033600003350507090B002300E70823FEE61023B9
:10337000FCE62023FAE64023F8E68023F6E603F590
:103380000E339B6D03F00703052B0ED8DFE803F027
:10339000031F0507090B0223E8E60823E6E61023CE
:1033A000E4E62023E2E64023E0E68023DEE6042391
:1033B000DCE60423DAE60423D8E60423D6E6042375
:1033C000D4E60423D2E60423D0E60423CEE6042385
:1033D000CCE6202B27D8022BC0F01A81023B1E2BF3
:1033E00000F21881DFE813F05000160156001601B4
:1033F000160116015B0016011601160116011601D1
:1034000016011601600016011601160116011601BB
:1034100016011601160116011601160116011601F4
:10342000160116016C00402B2CD14FF40040626A4B
:10343000264B33F81220B0FBF2F3656805EB45012B
:10344000994200F2E980B3EB053F00F2E7800026E5
:1034500033463146FCF794FF090241EA106100024D
:103460006B08C0182A46334641F10001FCF788FF7B
:10347000A0F54072164B9A4200F2D2802368D860C1
:103480003046D4E00120D2E0FFF728F80028CED162
:103490000020CCE003A8FFF733F80498F6E768466D
:1034A000FFF72AF90198F1E7074B1B6813F0200F8B
:1034B00008D0054B1B68C3F3C1030648D840E5E7B5
:1034C0000548B4E70348B2E700440258005C00082E
:1034D000FFFC0F000090D00300093D00202B15D801
:1034E000202B00F29F80DFE803F031379D9D3A9D4D
:1034F0009D9D3F9D9D9D9D9D9D9D449D9D9D9D9DB3
:103500009D9D9D9D9D9D9D9D9D9D5000402B1BD1F2
:10351000626A4D4B33F81230B0FBF3F06268530827
:1035200003EB4000B0FBF2F0A0F110024FF6EF7396
:103530009A4279D883B223F00F03C0F342001843B4
:103540002368D860002072E0012070E0FEF726F9C1
:103550000028DDD100206AE0FEF732F9F8E703A881
:10356000FEF7CEFF0498F3E76846FFF7C5F8019829
:10357000EEE7364B1B6813F0200F08D0334B1B6867
:10358000C3F3C1033248D840E2E73248C0E73048CD
:10359000BEE7402B17D14FF40040626A2A4B33F844
:1035A0001230B0FBF3F0636800EB5300B0FBF3F0B4
:1035B000A0F110024FF6EF739A4242D8236880B20E
:1035C000D860002033E0012031E0FEF7E7F8002862
:1035D000E3D100202BE0FEF7F3F8F8E703A8FEF7AD
:1035E0008FFF0498F3E76846FFF786F80198EEE747
:1035F000164B1B6813F0200F08D0144B1B68C3F345
:10360000C1031348D840E2E71248C6E71048C4E7B0
:1036100001200CE001200AE0012008E0012006E082
:10362000012004E0012002E0012000E0012001234C
:10363000A4F86A30A4F8683000236367A36706B073
:1036400070BD0120F3E700BF005C00080044025891
:103650000090D00300093D00836A13F0080F06D0E4
:103660000268536823F40043816B0B435360836A01
:1036700013F0010F06D00268536823F40033C16AC7
:103680000B435360836A13F0020F06D0026853683D
:1036900023F48033016B0B435360836A13F0040FF0
:1036A00006D00268536823F48023416B0B435360B8
:1036B000836A13F0100F06D00268936823F48053D6
:1036C000C16B0B439360836A13F0200F06D002682E
:1036D000936823F40053016C0B439360836A13F0E7
:1036E000400F0AD00268536823F48013416C0B43E7
:1036F0005360436CB3F5801F0BD0836A13F0800FC7
:1037000006D00268536823F40023C16C0B43536056
:1037100070470268536823F4C003816C0B43536005
:10372000EBE72DE9F84305460E4617469946DDF8C6
:1037300020802C68E46936EA04030CBF4FF0010CCA
:103740004FF0000CBC453AD1B8F1FF3FF1D0FFF784
:1037500073FAA0EB0900404534D8B8F1000F33D01C
:103760002B681A6812F0040FE3D0B6F1400218BFBC
:103770000122802EDDD0002ADBD0DA6912F0080F9A
:1037800011D1DA6912F4006FD3D04FF400621A62DB
:103790002846FFF73BFC2023C5F89030002385F82E
:1037A000843003200CE008241C622846FFF72EFC1E
:1037B000C5F89040002385F88430012000E0002007
:1037C000BDE8F8830320FBE70320F9E72DE9F0418A
:1037D00082B01E46D0F88830202B5BD104460D46BF
:1037E0009046002A18BF002901D1012053E0002390
:1037F000C0F890302123C0F88830FFF71DFA074643
:10380000A4F85480A4F85680A368B3F5805F02D072
:103810004FF0000816E0236943B34FF0000811E0B1
:103820002023C4F88830032035E038F8023B2268B2
:10383000C3F308039362B4F8562092B2013A92B2ED
:10384000A4F85620B4F856309BB293B100963B468C
:10385000002280212046FFF764FF0028E0D1002DE0
:10386000E3D015F8012B23689A62E4E7A846002507
:10387000E8E700963B46002240212046FFF751FF33
:1038800018B92023C4F8883005E02023C4F8883014
:10389000032000E0022002B0BDE8F08130B583B023
:1038A00004460023C0F89030FFF7C6F905462268A9
:1038B000126812F0080F10D123681B6813F0040F70
:1038C00028D12023C4F88830C4F88C300020E0666A
:1038D000206784F8840003B030BD6FF07E4300930E
:1038E000034600224FF400112046FFF71AFF00287C
:1038F000E2D0226852E8003F23F0800342E8003122
:103900000029F6D12023C4F88830002384F88430BD
:103910000320E0E76FF07E4300932B4600224FF434
:1039200080012046FFF7FDFE0028CAD0226852E839
:10393000003F23F4907342E800310029F6D1226859
:1039400002F1080353E8003F23F00103083242E884
:1039500000310029F3D12023C4F88C30002384F8EF
:1039600084300320B7E778B310B50446D0F8883028
:103970000BB32423C4F888302268136823F00103B2
:103980001360A36AE3B92046FFF76CFB012811D04E
:103990002268536823F4904353602268936823F0AD
:1039A0002A0393602268136843F0010313602046E2
:1039B000FFF774FF10BD80F88430FDF73FF8D8E7BB
:1039C0002046FFF749FEDEE701207047436E2BB922
:1039D0000123A0F86A30A0F86830704730B403685B
:1039E0009A68C2F342629968490F094D6B5C1B01EA
:1039F000084C615C93FBF1F3A0F86A30AB5C1B01EF
:103A0000A25C93FBF2F3A0F8683030BC704700BFB3
:103A1000205C0008185C000890F88430012B18D056
:103A2000012380F884302423C0F8883003681A68A2
:103A3000196821F00101196022F000520023436649
:103A400001680A602022C0F8882080F88430184677
:103A500070470220704738B590F88430012B1DD094
:103A60000446012380F884302423C0F8883003689A
:103A70001D681A6822F001021A600268936823F038
:103A8000604319439160FFF7A1FF23681D60202365
:103A9000C4F88830002084F8840038BD0220FCE798
:103AA00038B590F88430012B1DD00446012380F8EE
:103AB00084302423C0F8883003681D681A6822F017
:103AC00001021A600268936823F0606319439160F1
:103AD000FFF77CFF23681D602023C4F88830002096
:103AE00084F8840038BD0220FCE700002D4BD3F899
:103AF000882042F47002C3F888201A6942F010024C
:103B00001A61294B1B6803F00F03062B06D8264ABF
:103B1000136823F00F0343F007031360234B1A6865
:103B200042F001021A6000221A611968204A0A4014
:103B30001A601D4B1B6813F0080F06D01A4A136851
:103B400023F00F0343F007031360184B00229A6120
:103B5000DA611A62174999621749D96217491963DC
:103B60005A639963DA6319645A64196821F48021ED
:103B700019601A664FF0B042D2F8E43043F4804343
:103B8000C2F8E4300E4B1A680E4B1340B3F1005FDD
:103B900003D20D4B0122C3F808210C4B43F2D20291
:103BA0001A60704700ED00E0002000520044025807
:103BB0007FEDF6EA000202020000FF01800201012F
:103BC0000010005C0000FFFF008000510040005228
:103BD00000F1080343604FF0FF328260C36003616D
:103BE00000230360704700230361704743684B6004
:103BF0009A688A60516099600861036801330360C4
:103C000070470369416882688A60416851605A68F8
:103C1000824206D0002202611A68013A1A601868CE
:103C2000704782685A60F5E7084B1B681B6823B928
:103C3000074B4FF0FF321A607047044B1B68DB687C
:103C4000DB685A68024B1A60704700BF0C080020FE
:103C5000E00800202DE9F04707469846089DDDF86A
:103C600024900A9C266B6FF04043134406EB8306B6
:103C700026F00706002968D08E464FF0000CBCF1F4
:103C80000F0F0BD81EF80C2004EB0C0383F8342024
:103C90001EF80C3013B10CF1010CF0E7002384F88E
:103CA0004330062D00D90625E56265644FF0000A11
:103CB000C4F848A0201DFFF796FF04F11800FFF795
:103CC00092FF2461C5F10705A5616462C4F878A478
:103CD00084F87CA44FF48562514604F1500000F052
:103CE000B3FE04F54F73636504F56973A36504F2CD
:103CF0000C43E36501220023C4E93E2343F20E3363
:103D0000A4F800314AF6CD33A4F8023141F234234D
:103D1000A4F804314EF26D63A4F806314DF6EC635D
:103D2000A4F808310523A4F80A310B23A4F80C31B8
:103D300042463946304600F0A3FC2060B9F1000F3E
:103D400001D0C9F80040BDE8F087002384F8343082
:103D5000A7E7000038B5002407E004EB84029300D5
:103D60000E481844FFF734FF0134062CF5D90C4DEA
:103D70002846FFF72DFF0B4C2046FFF729FF0A4886
:103D8000FFF726FF0948FFF723FF0948FFF720FF49
:103D9000084B1D60084B1C6038BD00BF1408002094
:103DA000B4080020C8080020EC08002018090020F2
:103DB000040900200C0800201008002010B504465B
:103DC00000F088FC214A136801331360204B1B6804
:103DD0005BB1204B1B686BB91D4B1B68DA6AE36A49
:103DE0009A4207D81A4B1C6004E0194B1C601368F8
:103DF000012B28D0184A136801331360E06A0123AD
:103E00008340164A11680B43136000EB8000211DAC
:103E1000134B03EB8000FFF7E9FE00F07DFC0D4B38
:103E20001B687BB10A4B1B68DA6AE36A9A4209D2C3
:103E30004FF0E0234FF08052C3F8042DBFF34F8FB3
:103E4000BFF36F8F10BDFFF785FFD3E7A0080020F9
:103E50000808002000090020AC080020B00800205D
:103E60001408002010B50446503000F091FE94F87C
:103E70007D3463B1012B11D0022B0ED04FF05003D3
:103E800083F31188BFF36F8FBFF34F8FFEE7206B73
:103E900000F07AFB204600F077FB10BD204600F0D2
:103EA00073FBFAE70F4B1B68D3B110B500F012FC9F
:103EB0000D4BDB68DC68201DFFF7A3FE0B4A13687F
:103EC000013B1360074A1368013B136000F024FCB8
:103ED0002046FFF7C7FF034B1B68002BE6D110BD40
:103EE000704700BFA408002018090020A008002087
:103EF00008B5FFF7D7FF074B1B68012BF9D94FF027
:103F0000E0234FF08052C3F8042DBFF34F8FBFF36F
:103F10006F8FEEE71408002030B587B00B9C8CB192
:103F20000C9DC5B14FF490650495049DB5F5906F57
:103F30001AD04FF0500383F31188BFF36F8FBFF394
:103F40004F8FFEE74FF0500383F31188BFF36F8F5D
:103F5000BFF34F8FFEE74FF0500383F31188BFF399
:103F60006F8FBFF34F8FFEE7049D0C9D2C630224DF
:103F700085F87D4400240394029505AC01940A9CC5
:103F80000094FFF767FE0C98FFF718FF059807B03D
:103F900030BD2DE9F04385B00746884614461E46DD
:103FA000900000F073FA08B381464FF4906000F07F
:103FB0006DFA0546B0B1C0F83090E5B1002385F840
:103FC0007D34039302950D9B01930C9B0093334624
:103FD000224641463846FFF73DFE2846FFF7EEFEF3
:103FE000012005E0484600F0CFFAE6E74FF0FF3049
:103FF00005B0BDE8F0834FF0FF30F9E710B588B0A9
:1040000000240594069407AA06A905A8FCF7E2FC7B
:10401000059B0293069B019300942346079A10493F
:104020001048FFF779FF104B1860B8B14FF05003FC
:1040300083F31188BFF36F8FBFF34F8F0B4B1B6858
:1040400050330B4A13600B4B4FF0FF321A600A4B90
:1040500001221A60094B1C6000F0D6FB08B010BDAD
:10406000385C0008F13E0008DC0800200808002049
:1040700014000020E0080020000900202C09002086
:10408000024A136801331360704700BFA80800207C
:10409000F8B53A4B1B68002B69D1394B1D680135C7
:1040A0001D60C5B9374B1B681B6843B14FF0500307
:1040B00083F31188BFF36F8FBFF34F8FFEE7314A51
:1040C0001168314B186810601960304A1368013369
:1040D0001360FFF7A9FD2E4B1B68AB423DD90027AB
:1040E0002C4B1B68DB6A03EB83039A002A4B9B581B
:1040F000012B00D90127294B1B68002B3CD001273D
:104100003AE001271F4B1B681B6843B31D4B1B681C
:10411000DB68DC6863689D4226D3261D3046FFF7C6
:1041200070FDA36A1BB104F11800FFF76AFDE36A92
:1041300001229A401A49086802430A6003EB83038C
:104140009A00314614481044FFF750FDE26A114BC3
:104150001B68DB6A9A42D4D2D4E70027D2E70C4B23
:104160004FF0FF321A60BBE7094A1360B8E70D4A07
:1041700013680133136000273846F8BDA8080020F3
:104180002C0900200C08002010080020E408002062
:10419000E008002008080020140800203009002052
:1041A000B0080020E808002038B5354B1B6843B93B
:1041B0004FF0500383F31188BFF36F8FBFF34F8F1E
:1041C000FEE700F087FA2E4B1A68013A1A601B6866
:1041D000002B4FD12B4B1B680BB900244BE0002464
:1041E000294B1B681BB3284BDB68DC6804F1180003
:1041F000FFF707FD251D2846FFF703FDE06A0123B1
:104200008340224A11680B43136000EB800029466B
:104210001F4B03EB8000FFF7E9FCE26A1D4B1B68B4
:10422000DB6A9A42DCD31C4B01221A60D8E70CB13E
:10423000FFF7FAFC194B1C6884B9174B1C68D4B102
:104240004FF0E0234FF08052C3F8042DBFF34F8F9F
:10425000BFF36F8F01240EE0013C07D0FFF718FF7A
:104260000028F9D00C4B01221A60F5E70B4B002215
:104270001A60E2E7002400F04FFA204638BD00BF84
:10428000A8080020A0080020EC080020B0080020AA
:10429000140800200808002030090020E808002049
:1042A000224B1B681BB1224B01221A607047204B26
:1042B00000221A601F4B1B68B3FA83F3DBB2C3F111
:1042C0001F0303EB83018A001B498A5842B94FF050
:1042D000500383F31188BFF36F8FBFF34F8FFEE757
:1042E000154903EB830082000A445068406850601F
:1042F00003EB830C4FEA8C020832114488420DD044
:1043000003EB83039A000C4B13445B68DA680B4B96
:104310001A601B6850330A4A13607047406862464F
:104320009100054A0A445060EAE700BFA80800204F
:1043300030090020B00800201408002008080020E0
:1043400014000020842801D00330704700207047FB
:1043500008B5FFF753FE002008BD2DE9F04387B0F4
:1043600004460F464569BDB18669AEB1D0F80480F8
:10437000D0F80090B0F90800FFF7E4FF029601952D
:1043800000903B46226949464046FFF7C5FD05902F
:10439000059807B0BDE8F08365682668D4F81080FA
:1043A000B4F90800FFF7CEFF05AB019300903B4640
:1043B0001FFA88F231462846FFF7EBFD0128E7D0C7
:1043C0000020E6E7124A12F0070F1ED0D11D21F09F
:1043D0000701C1F5705313440A460E4802600021DC
:1043E00041601344083B23F007030B480360596006
:1043F0001960991A51601360084B1960084B1960D5
:10440000084B4FF000421A6070474FF47053E4E7D6
:10441000380900204C450020340900204045002088
:104420003C45002038450020164B1A461B68834245
:10443000FBD3516802EB010C844509D0416800EBC5
:10444000010C634509D00360904219D01060704799
:104450004068014451601046F0E710B40A4C2468EB
:10446000A3420BD05B681944416013681B6803606A
:10447000904200D010605DF8044B70470460F7E78D
:10448000704700BF4C4500203409002070B5054638
:10449000FFF7F6FD364B1B68A3B1364B1B681D4278
:1044A0004ED135B1083515F0070F02D025F00705BC
:1044B0000835002D46D0304B1B68AB4251D32F4AF4
:1044C000146804E0FFF77EFFE7E722461C466368B6
:1044D000AB4202D22368002BF7D1254B1B68A342C5
:1044E00041D0166808362368136063685B1B102B85
:1044F00010D9601910F0070F08D04FF0500383F364
:104500001188BFF36F8FBFF34F8FFEE74360656085
:10451000FFF78AFF626818490B689B1A0B601849FD
:1045200009688B4201D216490B60124B1B6813437A
:10453000636000232360134A13680133136002E0B1
:10454000002600E00026FFF72FFE16F0070F0CD024
:104550004FF0500383F31188BFF36F8FBFF34F8F7A
:10456000FEE70026EFE70026EDE7304670BD00BF0E
:1045700034090020384500203C4500204C450020EF
:104580004045002044450020002834D038B504467A
:10459000A0F1080550F8043C174A1268134208D1EC
:1045A0004FF0500383F31188BFF36F8FBFF34F8F2A
:1045B000FEE750F8081C41B14FF0500383F3118817
:1045C000BFF36F8FBFF34F8FFEE723EA020340F87C
:1045D000043CFFF755FD54F8041C084A13680B44CB
:1045E00013602846FFF720FF054A13680133136064
:1045F000FFF7DAFD38BD7047384500203C45002004
:104600004845002082B0002301930D4B1B68B3F195
:10461000FF3F08D04FF0500383F31188BFF36F8F33
:10462000BFF34F8FFEE74FF0500383F31188BFF3C2
:104630006F8FBFF34F8F019B002BFCD002B07047F0
:104640001000002008480068006880F308884FF0D8
:10465000000080F3148862B661B6BFF34F8FBFF3DA
:104660006F8F00DF00BF000008ED00E0DFF80C00F6
:10467000016841F4700101607047000088ED00E0BE
:104680004FF0807340F8043C21F0010140F8081C11
:10469000054B40F80C3C40F8202C6FF0020340F82A
:1046A000243C4438704700BF054600080000000065
:1046B000074B19680868B0E8F04F80F30988BFF32A
:1046C0006F8F4FF0000080F311887047AFF30080C8
:1046D000080800204FF0500383F31188BFF36F8F59
:1046E000BFF34F8F0B4A136801331360012B00D0C7
:1046F00070474FF0E023D3F8043D13F0FF0FF7D0DD
:104700004FF0500383F31188BFF36F8FBFF34F8FC8
:10471000FEE700BF10000020094B1B6843B94FF0B3
:10472000500383F31188BFF36F8FBFF34F8FFEE702
:10473000013B034A13600BB983F31188704700BF34
:104740001000002000000000000000000000000039
:10475000EFF30980BFF36F8F154B1A681EF0100F2F
:1047600008BF20ED108A20E9F04F10602DE9090004
:104770004FF0500080F31188BFF34F8FBFF36F8F5E
:10478000FFF78EFD4FF0000080F3118809BC196817
:104790000868B0E8F04F1EF0100F08BFB0EC108AA8
:1047A00080F30988BFF36F8F704700BFAFF30080BD
:1047B0000808002008B54FF0500383F31188BFF3B9
:1047C0006F8FBFF34F8FFFF763FC28B14FF0E023EB
:1047D0004FF08052C3F8042D002383F3118808BDE5
:1047E0004FF0E022002313619361054B1B680549DC
:1047F000A1FB03139B09013B53610723136170471E
:1048000008000020D34D62104FF0E023D3F8002DB4
:104810003D4B9A421CD04FF0E023D3F8002D3B4B88
:104820009A421ED030B583B0394B1A78D2B2019279
:10483000FF221A701B78DBB28DF803309DF803302D
:1048400003F05003334A1370334B07221A601BE006
:104850004FF0500383F31188BFF36F8FBFF34F8F77
:10486000FEE74FF0500383F31188BFF36F8FBFF360
:104870004F8FFEE7284A1368013B13609DF8033011
:104880005B00DBB28DF803309DF8033013F0800F2E
:10489000F0D1214B1B68032B08D04FF0500383F35A
:1048A0001188BFF36F8FBFF34F8FFEE71B021A4AC9
:1048B000136003F4E0631360019BDBB2144A1370CE
:1048C0004FF0E024D4F8203D43F47003C4F8203DB9
:1048D000D4F8203D43F07043C4F8203DFFF780FF3B
:1048E00000250E4B1D60FFF7C1FED4F8343F43F0A6
:1048F0004043C4F8343FFFF7A5FEFFF7D1FCFFF7B4
:1049000081FE284603B030BD71C20F4170C20F4115
:1049100000E400E05445002058450020100000202D
:1049200010B503460C4A0D490D48006840B10C48CB
:1049300000680344521A934206D8094A136010BD16
:104940000748084C0460F2E700F054F80C230360B9
:104950004FF0FF30F3E700BF00000220000400002A
:104960005C4500207045002070B50C4616460025B9
:1049700006E0AFF30080214601F8010B01350C463B
:10498000B542F6DB304670BD4FF0FF3070474FF454
:1049900000534B6000207047012070470020704793
:1049A000DFF834D0FFF7A2F80C480D490D4A002378
:1049B00002E0D458C4500433C4188C42F9D30A4AD4
:1049C0000A4C002301E013600432A242FBD300F042
:1049D00017F8FBF797FF7047000002200000002047
:1049E00078000020E85C0008780000207045002076
:1049F000FEE70000014B1868704700BF140000205C
:104A000070B50D4D0D4C641BA4100026A64209D1B3
:104A10000B4D0C4C01F08EF8641BA4100026A6422E
:104A200005D170BD55F8043B98470136EEE755F8BF
:104A3000043B98470136F2E7E05C0008E05C0008C0
:104A4000E05C0008E45C000802440346934200D1A5
:104A5000704703F8011BF9E70FB40A4B13B51C6844
:104A600024B1A36913B9204600F0C8FA05AB049A33
:104A7000A1680193204600F0D1FC02B0BDE81040CF
:104A800004B070471400002070B50E46054618B1FA
:104A900083690BB900F0B2FAAB69AC6813B9284668
:104AA00000F0ACFA2C4B9C4220D16C68636EDB07A3
:104AB00005D4A389980502D4A06D00F03DFBA3891D
:104AC00019071DD52369DBB1013EA36816F8011F44
:104AD000013BA36039BB002B38DA22460A21284665
:104AE00000F0B2F8013011D00A2511E01B4B9C42B6
:104AF00001D1AC68DAE71A4B9C4208BFEC68D5E7F5
:104B00002146284600F0F2F80028DDD04FF0FF35AE
:104B1000636EDA0705D4A3899B0502D4A06D00F06B
:104B20000CFB284670BD002B04DAA2699A4206DC11
:104B30000A2904D023685A1C22601970C5E722464E
:104B4000284600F081F80130BFD1DFE723680A254D
:104B50005A1C22601D70DBE7645C0008845C00085E
:104B6000445C0008024B01461868FFF78DBF00BF88
:104B70001400002038B50C460968054609B1FFF756
:104B8000F9FF21462846BDE8384000F03DBB000053
:104B90002C4B1B68834270B5044651D0436A43B125
:104BA000DB68002B4AD1636A196811B1204600F016
:104BB0002BFB616911B1204600F026FB616A11B13F
:104BC000204600F021FBA16B11B1204600F01CFB38
:104BD000E16B11B1204600F017FB216C11B12046AA
:104BE00000F012FBE16D11B1204600F00DFBA16D4C
:104BF00011B1204600F008FB616B11B1204600F0B6
:104C000003FBA369E3B1A36A20469847A16CB9B13D
:104C10002046BDE87040FFF7ADBF495941B90435A2
:104C2000636A802DD968F8D1204600F0EDFABAE722
:104C30000E68204600F0E8FA3146EFE70025EFE77E
:104C400070BD00BF14000020F8B50E46144605469E
:104C500018B183690BB900F0D1F9214B9C422BD1DB
:104C60006C68A369A360A3891A072FD523696BB366
:104C700023692068C01A6369F6B28342374604DCB0
:104C80002146284600F026F930BBA368013BA3600B
:104C900023685A1C22601E7063690130834204D06D
:104CA000A389DB0706D50A2E04D12146284600F049
:104CB00011F988B93846F8BD0A4B9C4201D1AC685D
:104CC000CFE7094B9C4208BFEC68CAE7214628465B
:104CD00000F00CF80028CBD04FF0FF37EAE700BF18
:104CE000645C0008845C0008445C0008324B70B5CA
:104CF0001D6806460C4625B1AB6913B9284600F07D
:104D00007DF92E4B9C420FD16C68A389B4F90C201D
:104D100019072CD4DD0611D40923336042F0400377
:104D2000A3814FF0FF303EE0254B9C4201D1AC689F
:104D3000EBE7244B9C4208BFEC68E6E7580712D526
:104D4000616B41B104F14403994202D0304600F056
:104D50005BFA00236363A38923F02403A381002368
:104D6000636023692360A38943F00803A381236957
:104D70004BB9A38903F42073B3F5007F03D0214618
:104D8000304600F001FAA089B4F90C2010F00103BC
:104D90000AD00023A36063695B42A361236943B91E
:104DA00010F08000BAD170BD810758BF6369A3605D
:104DB000F4E70020F7E700BF14000020645C00085F
:104DC000845C0008445C00088A892DE9F0410546AE
:104DD00010070C4658D44B68002B05DC0B6C002BDD
:104DE00002DC0020BDE8F081E66A002EF9D0002345
:104DF00012F480522F682B6032D0606DA3895A075D
:104E000005D56368C01A636B0BB1236CC01A00230D
:104E10000246E66A216A2846B047431CA38906D1A8
:104E200029681D292CD82A4ACA40D60728D500222D
:104E30006260D9042269226004D5421C01D12B682A
:104E400003B96065616B2F600029CAD004F1440387
:104E5000994202D0284600F0D7F900206063C1E7EC
:104E6000216A01232846B047411CC7D12B68002B7B
:104E7000C4D01D2B01D0162B01D12F60B1E7A3891F
:104E800043F04003A381ADE70F69002FA9D093073A
:104E90000E6808BF4B690F6018BF0023A6EB070818
:104EA0008B60B8F1000F9CDD216AA66A43463A4642
:104EB0002846B047002806DCA38943F04003A381BD
:104EC0004FF0FF308EE70744A8EB0008E9E700BF8A
:104ED0000100402038B50B6905460C4613B9002582
:104EE000284638BD18B183690BB900F087F8144B18
:104EF0009C421BD16C68B4F90C30002BEFD0626E71
:104F0000D00704D4990502D4A06D00F015F9284605
:104F10002146FFF759FF636EDA070546E0D4A389FF
:104F20009B05DDD4A06D00F008F9D9E7054B9C4244
:104F300001D1AC68DFE7044B9C4208BFEC68DAE7BC
:104F4000645C0008845C0008445C0008002310B521
:104F50000446C0E90033C0E90433836081814366BD
:104F6000C2818361194608225C30FFF76DFD054B55
:104F70006362054BA362054BE362054B2462236326
:104F800010BD00BFC5590008E75900081F5A0008A6
:104F9000435A0008014900F0AFB800BFD54E0008E1
:104FA00070B568224D1E55430E4605F1740100F0A0
:104FB00097F9044640B10021C0E900160C30A0600A
:104FC00005F16802FFF740FD204670BD014800F082
:104FD000B3B800BF65450020014800F0AEB800BF7F
:104FE00065450020014800F0A7B800BF66450020D5
:104FF000014800F0A2B800BF6645002010B5044685
:10500000FFF7F0FFA3691BB1BDE81040FFF7F0BF49
:10501000C4E912332365134B134A1B68A262A342EF
:1050200004BF0123A361204600F020F86060204601
:1050300000F01CF8A060204600F018F80022E060A4
:1050400004216068FFF782FFA06801220921FFF7B1
:105050007DFFE06802221221FFF778FF0123A361A0
:10506000D2E700BF405C0008954F0008F8B507463E
:10507000FFF7ACFF1E4B1E68B36913B93046FFF74C
:10508000BDFF4836D6E90134013B03D533680BB385
:105090003668F7E7B4F90C50D5B9164BE36004F164
:1050A0005800656600F047F8FFF796FFC4E9015520
:1050B000C4E904552560A5610822294604F15C0075
:1050C000FFF7C2FCC4E90D55C4E912552046F8BDEE
:1050D0006834D9E704213846FFF762FF04463060A0
:1050E0000028D5D1FFF778FF0C233B60EEE700BF27
:1050F000405C00080100FFFF2DE9F84306468846A2
:1051000000F148040027D4E90195B9F1010905D55A
:105110002468002CF7D13846BDE8F883AB89012B11
:1051200007D9B5F90E30013303D029463046C047C0
:1051300007436835E9E770477047704770B50E461A
:10514000B1F90E10002996B014461D4608DAB6F9DA
:105150000C3000222A601A0610D44FF480630EE04F
:105160006A4600F095FC0028F1DB019A02F47042D7
:10517000A2F500535A425A412A60EEE7402300202C
:10518000236016B070BD00008B8973B59D0706467D
:105190000C4607D504F147032360236101236361B3
:1051A00002B070BD01AB6A46FFF7C8FF0099054623
:1051B000304600F095F848B9B4F90C309A05EFD4B0
:1051C00023F0030343F00203A381E3E70D4BB36233
:1051D000A389206043F08003A381009B6361019B4E
:1051E00020615BB1B4F90E10304600F063FC28B1C9
:1051F000A38923F0030343F00103A381A08905439E
:10520000A581CDE7954F000837B5002944D051F866
:10521000043C0190002BA1F10404B8BFE41800F095
:105220006BFC1E4A0198136833B96360146003B0C5
:10523000BDE8304000F066BCA34208D9256861197A
:105240008B4201BF19685B6849192160EDE71A4676
:105250005B680BB1A342FAD911685518A5420BD16E
:10526000246821445418A3421160E0D11C685B6893
:10527000536021441160DAE702D90C230360D6E7BA
:10528000256861198B4204BF19685B68636004BFBD
:10529000491921605460CAE703B030BD6845002059
:1052A00070B50E4E0C463168054611B900F07AFB18
:1052B00030602146284600F075FB431C0AD0C41C10
:1052C00024F00304A04207D0211A284600F06AFB0C
:1052D000013001D14FF0FF34204670BD6C450020F5
:1052E0002DE9F041CD1C25F0030508350C2D38BF04
:1052F0000C25002D074601DBA94205D90C233B6094
:1053000000263046BDE8F0812E4E00F0F5FB3368F4
:105310001C4634BB29463846FFF7C2FF431C0446EF
:105320004DD134682646002E40D123683146384698
:1053300004EB030800F036FB80453AD121680335C1
:105340006D1A25F0030508350C2D38BF0C252946AC
:105350003846FFF7A5FF01302BD023682B4423608C
:105360000EE02268521B1ED40B2A16D96119A342E3
:10537000256018BF5960636808BF316062514B6097
:10538000384604F10B0600F0BDFB26F00706231D8E
:10539000F21AB6D09B1BA350B3E76268A3420CBFBE
:1053A00032605A60ECE723466468B2E734467668B8
:1053B000B9E70C233B60384600F0A4FBA1E7256069
:1053C000DEE700BF684500209368013B002B10B466
:1053D000936008DA9469A34201DB0A2903D15DF8DE
:1053E000044BFFF731BC1368581C10601970084655
:1053F0005DF8044B7047F8B506460F461446D518BD
:10540000AC4201D1002007E014F8011B3A463046B7
:10541000FFF7DAFF431CF3D1F8BD00002DE9F04F90
:105420000D469DB014469846064618B183690BB9DF
:10543000FFF7E4FD894B9D421BD175686B6ED90760
:1054400005D4AB899A0502D4A86DFFF775FEAB8928
:105450001B0701D52B69EBB929463046FFF746FCFF
:10546000C0B16B6EDC070ED54FF0FF301DB0BDE84C
:10547000F08F7B4B9D4201D1B568DFE7794B9D42B0
:1054800008BFF568DAE7AB899805EDD4A86DFFF79A
:1054900054FEE9E70023099320238DF82930CDF845
:1054A0000C803023DFF8C0818DF82A304FF00109DD
:1054B00023469A4613F8012B0AB1252AF9D1BAEBF3
:1054C000040B0BD05B46224629463046FFF793FF7C
:1054D000013000F0AA80099A5A4409929AF80030E3
:1054E000002B00F0A28000234FF0FF32CDE905230E
:1054F0000AF1010A049307938DF853301A93544626
:10550000052214F8011B5848FAF7EAFE049AD8B9A4
:10551000D10644BF20238DF85330130744BF2B23FB
:105520008DF853309AF800302A2B15D0079A54463C
:1055300000204FF00A0C214611F8013B303B092BAB
:105540004ED9B0B1079214E0A0EB080309FA03F3B7
:1055500013430493A246D2E7039B191D1B680391D2
:10556000002BBBBF5B4242F0020207930793B8BF18
:10557000049223782E2B0CD163782A2B35D1039BF0
:105580001A1D1B680392002BB8BF4FF0FF33023483
:105590000593DFF8E4A0217803225046FAF7A0FE35
:1055A00040B14023A0EB0A0003FA00F0049B034340
:1055B0000134049314F8011B2C488DF8281006229E
:1055C000FAF78EFE00283FD0294B1BBB039B073305
:1055D00023F0070308330393099B3B44099367E7D0
:1055E0000CFB02320C460120A5E700230134059391
:1055F00019464FF00A0C204610F8012B303A092AC0
:1056000003D9002BC5D00591C3E70CFB012104464B
:105610000123F0E703AB00932A46164B04A930465A
:10562000AFF300800746781CD6D16B6ED90705D43E
:10563000AB899A0502D4A86DFFF77FFDAB895B06A5
:105640003FF512AF099811E703AB00932A46094BC7
:1056500004A9304600F080F8E4E700BF645C00086D
:10566000845C0008445C0008A45C0008AE5C000890
:1056700000000000F7530008AA5C00082DE9F0477D
:10568000164699468A680B69DDF820809342B8BFB8
:105690001346336091F8432007460C460AB10133A4
:1056A00033602368990642BF33680233336025684C
:1056B00015F0060506D104F1190AE36832689B1A51
:1056C000AB4226DC94F84320131E226818BF012346
:1056D00092062BD404F1430249463846C0470130B4
:1056E0001ED02368E568326803F00603042B08BF68
:1056F000AD1AA36822690CBF25EAE575002593421F
:10570000C4BF9B1AED1800261A34B5421AD10020E6
:1057100008E00123524649463846C047013003D1CC
:105720004FF0FF30BDE8F0870135C6E7E1185A1C9D
:10573000302081F84300224494F8451082F8431049
:105740000233C7E70123224649463846C0470130A5
:10575000E6D00136D9E700002DE9FF470F7E0C9D0A
:10576000782F914680460C469A4601F1430207D8AD
:10577000622F0AD8002F00F0D880582F00F0A380A5
:1057800004F1420584F842703AE0A7F16303152B57
:10579000F6D801A151F823F0F15700080558000888
:1057A0008157000881570008815700088157000879
:1057B00005580008815700088157000881570008E4
:1057C000815700081159000835580008F35800089F
:1057D0008157000881570008335900088157000895
:1057E000355800088157000881570008FB58000809
:1057F0002B681A1D1B682A6004F1420584F84230A8
:105800000123A3E020682968060601F104030AD5F4
:105810000E682B60002E03DA2D23764284F8433085
:105820005E480A2319E00E682B6010F0400F18BF85
:1058300036B2EFE72B682068191D2960010601D5F3
:105840001E6802E04606FBD51E8854486F2F0CBF29
:1058500008230A23002184F843106568A560002D01
:10586000A2BF216821F0040121600EB9002D4DD0A6
:105870001546B6FBF3F103FB1167C75D05F8017D23
:105880003746BB420E46F4D9082B0BD12368DE07FE
:1058900008D5236961689942DEBF302305F8013CD1
:1058A00005F1FF35521B2261CDF800A04B4603AA3B
:1058B00021464046FFF7E2FE01304CD14FF0FF3069
:1058C00004B0BDE8F087354881F845702968236841
:1058D00051F8046B29601D0614D5DF0744BF43F05F
:1058E000200323601EB9236823F0200323601023C4
:1058F000B0E7236843F0200323607823284884F826
:105900004530E3E7590648BFB6B2E6E71546BBE7C0
:105910002B6826686169181D286035061B6801D54B
:10592000196002E07006FBD519800023236115463B
:10593000BAE72B681A1D2A601D6862680021284694
:10594000FAF7CEFC08B1401B606063682361002356
:1059500084F84330A8E723692A4649464046D047A1
:105960000130ABD023689B0713D4E068039B9842B7
:10597000B8BF1846A4E70123324649464046D047FF
:1059800001309BD00135E36803995B1AAB42F2DC2E
:10599000EBE7002504F11906F5E700BFB55C000848
:1059A000C65C000838B5064D0023044608462B6047
:1059B000FEF7B6FF431C02D12B6803B1236038BD4C
:1059C0006045002010B50C46B1F90E1000F0A0F8AB
:1059D0000028ABBF636DA3891B1823F48053ACBFB1
:1059E0006365A38110BD2DE9F0411F468B89DB055E
:1059F00005460C46164605D5B1F90E1002230022C5
:105A000000F068F8A389B4F90E1023F48053A38141
:105A100032463B462846BDE8F04100F017B810B5C5
:105A20000C46B1F90E1000F055F8431CA38915BFC0
:105A3000606523F4805343F48053A38118BFA3818E
:105A400010BDB1F90E1000F013B8000038B5074DC5
:105A500004460846114600222A601A46FAF798FEC4
:105A6000431C02D12B6803B1236038BD6045002080
:105A700038B5064D0023044608462B60FEF784FF28
:105A8000431C02D12B6803B1236038BD6045002060
:105A900038B5074D00230446084611462B60FEF733
:105AA00076FF431C02D12B6803B1236038BD00BFD1
:105AB0006045002038B5064D0023044608462B609B
:105AC000FEF76AFF431C02D12B6803B1236038BD87
:105AD0006045002038B5074D0446084611460022AF
