:020000040810E2
:1000000000800410114F1008410810084308100820
:1000100045081008470810084908100800000000AB
:100020000000000000000000000000004B08100865
:100030004D081008000000004F0810085108100873
:10004000614F1008614F1008614F1008614F100890
:10005000614F1008614F1008614F1008614F100880
:10006000614F1008614F1008614F1008614F100870
:10007000614F1008614F1008614F1008614F100860
:10008000614F1008614F1008614F1008614F100850
:10009000614F1008614F1008614F1008614F100840
:1000A000614F1008614F1008614F1008614F100830
:1000B000614F1008614F1008614F1008614F100820
:1000C000614F1008614F1008614F1008614F100810
:1000D000614F1008614F1008614F1008614F100800
:1000E000614F1008614F100800000000614F1008B8
:1000F000614F1008614F1008614F1008614F1008E0
:10010000614F1008614F1008614F1008614F1008CF
:10011000614F1008614F1008614F1008614F1008BF
:10012000614F1008614F1008614F1008614F1008AF
:10013000614F1008614F1008614F1008614F10089F
:10014000614F1008614F100800000000000000001F
:10015000614F1008614F1008614F1008614F10087F
:10016000614F1008614F1008614F1008614F10086F
:10017000614F1008614F1008614F10080000000027
:10018000614F1008614F1008614F1008614F10084F
:10019000614F1008614F1008614F1008614F10083F
:1001A000614F1008614F1008614F1008614F10082F
:1001B000614F1008614F1008614F1008614F10081F
:1001C000614F1008614F1008614F1008614F10080F
:1001D000614F1008614F1008614F1008614F1008FF
:1001E000614F1008614F1008614F1008614F1008EF
:1001F000614F1008614F1008614F1008614F1008DF
:10020000614F1008614F1008614F1008614F1008CE
:10021000614F1008614F1008614F1008614F1008BE
:10022000614F1008614F1008614F10080000000076
:10023000614F1008614F1008614F1008614F10089E
:10024000614F1008614F1008614F1008614F10088E
:10025000614F1008614F1008614F1008614F10087E
:10026000614F1008614F1008614F1008614F10086E
:10027000614F1008614F1008614F1008614F10085E
:10028000614F1008614F1008614F10080000000016
:08029000614F1008614F1008D6
:1002980010B5054C237833B9044B13B10448AFF3B8
:1002A80000800123237010BDD00000100000000062
:1002B800BC4F100808B5034B1BB103490348AFF303
:1002C800008008BD00000000D4000010BC4F1008DA
:1002D8002DE9F04F91B000240B940C940D940E94DA
:1002E8000F948E4BD3F8E02042F48072C3F8E020DC
:1002F800D3F8E02002F480720092009AD3F8E0204C
:1003080042F00202C3F8E020D3F8E02002F0020233
:100318000192019AD3F8E02042F48062C3F8E02009
:10032800D3F8E02002F480620292029AD3F8E02027
:1003380042F04002C3F8E020D3F8E02002F0400287
:100348000392039AD3F8E02042F00402C3F8E020B5
:10035800D3F8E02002F004020492049AD3F8E020D3
:1003680042F01002C3F8E020D3F8E02002F01002B7
:100378000592059AD3F8E02042F40072C3F8E02011
:10038800D3F8E02002F400720692069AD3F8E0202F
:1003980042F08002C3F8E020D3F8E02002F08002A7
:1003A8000792079AD3F8E02042F00802C3F8E02049
:1003B800D3F8E02002F008020892089AD3F8E02067
:1003C80042F00102C3F8E020D3F8E02002F0010275
:1003D8000992099AD3F8E02042F02002C3F8E020FD
:1003E800D3F8E03003F020030A930A9B42F220037B
:1003F8000B9302250C954FF00908CDF83C80DFF8E7
:1004080028B10BA9584602F06DFB4FF683730B9386
:100418000C950D9403270E970C260F96DFF80C9178
:100428000BA9484602F05EFB40230B930C950D94F4
:100438000E944FF00A0ACDF83CA00BA9584602F0DA
:1004480051FB4FF4C0430B930C950D940E94CDF8CB
:100458003C800BF5C05B0BA9584602F043FB3023E8
:100468000B930C950D940E94CDF83CA00BA948461F
:1004780002F038FB48F233130B930C950D940E974A
:100488000F960BA9264802F02DFB4CF203730B9331
:100498000C950D940E970F960BA9224802F022FB9B
:1004A8004FF63F030B930C950D940E970F9609F595
:1004B80080690BA9484602F015FB4FF498630B932B
:1004C8000C950D940E94CDF83C800BA9484602F08B
:1004D80009FB4FF400730B930C950D940E94CDF813
:1004E8003CA00BA9484602F0FDFAE0230B930C95BB
:1004F8000D940E970F960BA9584602F0F3FA4FF495
:1005080000630B930C950D940E94CDF83C800BA9C9
:10051800044802F0E7FA11B0BDE8F08F0044025831
:1005280000180258000C0258000402580010025823
:1005380072B6FEE710B51348134B0360134B002245
:100548001A7080215970E1219970DA701A715A7104
:10055800436002720E4BC3600E4B036140F2F453CA
:10056800436102F023FF58B90B4C38220021204682
:1005780004F018FD212323604FF44033636110BD5C
:10058800FFF7D6FF2C01001000800240EC0000109D
:100598007000001010000010F400001010B59AB0A0
:1005A8003424224600210DEB040004F0FBFC224613
:1005B8000021684604F0F6FC3248334B0360002300
:1005C80043608360C3600361072242610322826142
:1005D8000E22C2610522026240F28E22426240F27D
:1005E800E51282624FF42572C26240F2E71202639A
:1005F80080F8343080F8353080F8363003F06AF807
:10060800002838D100220D920E920F92109211926A
:10061800129213924FF48063149305231593169244
:10062800179218928DF864208DF865208DF8662051
:100638000DA9144803F0C8F8F8B9002300930193F2
:10064800029303930493059306934FF480620792F1
:100658000522089209930A930B938DF830308DF890
:1006680031308DF8323001226946064803F0ACF883
:1006780028B91AB010BDFFF75BFFFFF759FFFFF766
:1006880057FF00BFDC0100100010005008B52A48D1
:100698002A4B036000234364436040228264C3649E
:1006A8000365836043618361C361254A0262C36055
:1006B800C3620363436380F838300122C2634FF496
:1006C80080710164082141658265C36503664366DC
:1006D8008366C3660267436703F0CCF8002826D117
:1006E8001848194B036000234364032242604022E8
:1006F8008264C3640365012282604361C361C3608D
:10070800C3620363436380F83830C2634FF4807177
:100718000164082141658265C36503664366836693
:10072800C3660267436703F0A5F810B908BDFFF771
:10073800FFFEFFF7FDFE00BFDC090010045C01406E
:1007480000EE0200740A0010245C014008B5084855
:10075800084B03600023436083604FF40042C2608B
:100768000361436104F030F900B908BDFFF7E0FE0A
:10077800840200100070005208B50B480B4B036050
:10078800092303710222C2710023837142728372AA
:10079800C3720373012242738273C37304F039F97D
:1007A80000B908BDFFF7C4FEF804001000000840B7
:1007B80000B583B01D4BD3F8E02042F00072C3F8B7
:1007C800E020D3F8E03003F000730193019B01208F
:1007D80002F098FA02F0F6FA01220221002002F053
:1007E80099FA134B1B68C3F30313072B15D0114A4F
:1007F800D2F8143143F00103C2F8143102F01CFBA3
:10080800FFF766FDFFF796FEFFF7C8FEFFF73EFF0E
:10081800FFF79CFFFFF7B0FFFEE7064AD2F8043166
:1008280043F00103C2F80431E8E700BF004402586E
:1008380000ED00E000640258FEE7FEE7FEE7FEE791
:10084800FEE770477047704708B502F043FB08BDE4
:1008580082B0074BD3F8F42042F00202C3F8F42028
:10086800D3F8F43003F002030193019B02B0704700
:100878000044025870B590B000230B930C930D936D
:100888000E930F930268644B9A4201D010B070BD6A
:10089800624BD3F8D82042F40042C3F8D820D3F8EA
:1008A800D82002F400420192019AD3F8D82042F4E9
:1008B8008032C3F8D820D3F8D82002F480320292CC
:1008C800029AD3F8D82042F40032C3F8D820D3F8DB
:1008D800D82002F400320392039AD3F8E02042F0C1
:1008E8004002C3F8E020D3F8E02002F0400204926E
:1008F800049AD3F8E02042F01002C3F8E020D3F8BD
:10090800E02002F010020592059AD3F8E02042F4A4
:100918008072C3F8E020D3F8E02002F480720692D7
:10092800069AD3F8E02042F00402C3F8E020D3F896
:10093800E02002F004020792079AD3F8E02042F080
:100948008002C3F8E020D3F8E02002F08002089289
:10095800089AD3F8E02042F00102C3F8E020D3F867
:10096800E02002F001020992099AD3F8E02042F04F
:100978000202C3F8E020D3F8E03003F002030A9340
:100988000A9B4FF460530B9302260C960B250F9588
:100998000BA9234802F0A6F804230B930C96002415
:1009A8000D940E940F950BA91E4802F09BF84FF476
:1009B80080630B930C960D940E940F950BA91A480F
:1009C80002F090F83E230B930C960D940E940F951D
:1009D8000BA9164802F086F80C230B930C960D947D
:1009E8000E940F950BA9124802F07CF886230B93FE
:1009F8000C960D940E940F950BA90E4802F072F800
:100A080003230B930C960D940E940F950BA90A488B
:100A180002F068F83AE700BF00800240004402583C
:100A28000018025800100258002002580008025806
:100A3800001C0258000002580004025870B5BCB0EF
:100A4800044600213791389139913A913B91C0225F
:100A580006A804F0A7FA2268454B9A4201D03CB098
:100A680070BD4FF000520023CDE9062320231093D8
:100A7800C023119302231293139314934FF44063EA
:100A880015934FF40073169306A800F077FC00281E
:100A98006BD1384BD3F8E42042F00802C3F8E420C5
:100AA800D3F8E42002F008020192019AD3F8E0207A
:100AB80042F48062C3F8E020D3F8E02002F48062B8
:100AC8000292029AD3F8E02042F48072C3F8E02040
:100AD800D3F8E02002F480720392039AD3F8E0205E
:100AE80042F40072C3F8E020D3F8E02002F4007268
:100AF8000492049AD3F8E02042F08002C3F8E02080
:100B0800D3F8E03003F080030593059BFC2337936B
:100B180002263896002439943A940E253B9537A935
:100B2800154801F0DFFF4DF20323379338963994C7
:100B38003A943B9537A9114801F0D4FF4FF6FB735F
:100B48003793389639943A943B9537A90C4801F075
:100B5800C9FF4FF400733793389639943A943B950C
:100B680037A9084801F0BEFF79E7FFF7E1FC90E7F5
:100B78000010005000440258002802580020025873
:100B880000240258001C0258F0B5BBB004460021EE
:100B980035913691379138913991C02204A804F0E3
:100BA80001FA2268334B9A4201D03BB0F0BD4FF4B2
:100BB80080320023CDE9042304A800F0DFFB0028DD
:100BC80055D12D4BD3F8D42042F48032C3F8D42029
:100BD800D3F8D42002F480320092009AD3F8E020AF
:100BE80042F00402C3F8E020D3F8E02002F0040247
:100BF8000192019AD3F8E02042F00202C3F8E02003
:100C0800D3F8E02002F002020292029AD3F8E02020
:100C180042F00802C3F8E020D3F8E03003F00803FC
:100C28000393039B4FF4FE53359302273697002610
:100C38003796032538950C24399435A90F4801F0C7
:100C480051FF4FF44073359336973796389539945A
:100C580035A90B4801F046FF04233593369737969C
:100C68003895399435A9074801F03CFF9DE7FFF70F
:100C78005FFCA6E7007000520044025800080258C2
:100C880000040258000C025870B5B8B004460021A0
:100C980033913491359136913791C02202A804F0EE
:100CA80081F92268244B9A4201D038B070BD4FF4C4
:100CB80080220023CDE902234FF48013249302A855
:100CC80000F05CFB002833D102F086F81B4CD4F806
:100CD800E03043F00103C4F8E030D4F8E03003F02A
:100CE80001030093009B4FF4007333930025349560
:100CF8003595134E33A9304601F0F4FE4FF4C05336
:100D0800339302233493359536950A23379333A9C1
:100D1800304601F0E7FED4F8D83043F00063C4F859
:100D2800D830D4F8D83003F000630193019BBCE7B6
:100D3800FFF7FEFBC8E700BF000008400044025868
:100D48000000025810B5B8B00446C022002102A81D
:100D580004F028F92268334B9A4205D02268324BB6
:100D68009A422ED038B010BD4FF400720023CDE95E
:100D7800022302A800F002FB00BB2C4B1B6863B9DE
:100D88002B4AD2F8F01041F40001C2F8F010D2F862
:100D9800F02002F400020092009A0133234A136003
:100DA800F0233393022334930023359336930A2395
:100DB800379333A91F4801F095FECFE7FFF7B8FB3B
:100DC800DBE74FF400720023CDE9022300231993D7
:100DD80002A800F0D3FA08BB144B1B6863B9144A85
:100DE800D2F8F01041F40001C2F8F010D2F8F02067
:100DF80002F400020192019A01330C4A13604FF485
:100E080080633393022334930023359336930A2364
:100E1800379333A9084801F065FEA3E7FFF788FB7D
:100E2800DAE700BF045C0140245C01400C0B0010B1
:100E38000044025800200258001802580649CB689E
:100E480023F4E0631B041B0C000200F4E06003437E
:100E5800024A1A43CA60704700ED00E00000FA0534
:100E680000B5174BDB68C3F30223C3F1070CBCF1D1
:100E7800040F28BF4FF0040C03F1040EBEF1060F57
:100E880014D9033B4FF0FF3E0EFA0CFC21EA0C018B
:100E980099400EFA03F322EA03031943002807DBFB
:100EA8000901C9B2074B19545DF804FB0023E9E7AF
:100EB80000F00F000901C9B2034B1954F4E700BF51
:100EC80000ED00E000E400E014ED00E00138B0F1CE
:100ED800807F0BD24FF0E0235861054AF02182F859
:100EE80023100020986107221A617047012070477B
:100EF80000ED00E0044B1B68C3F30313072B01D07C
:100F0800012070470320704700ED00E0744B1B6917
:100F180003F03803102B00F0DE80182B10D00BB133
:100F2800704870476E4B1B6813F0200F00F0D58097
:100F38006B4B1868C0F3C1006B4B23FA00F0704785
:100F480010B4674A916A01F00301946AC4F305106A
:100F5800D36A03F0010C536BC3F3CC030CFB03F30C
:100F680007EE903AF8EE677A14F47C7F00F09380ED
:100F7800012965D0022900F09180E1B107EE100A3D
:100F8800F8EE476A9FED596A86EE267A544B1B6B3A
:100F9800C3F3080306EE903AF8EE666A9FED546ACA
:100FA80067EE867A76EEA77AF7EE006A77EEA67A8B
:100FB80027EE277A60E0136813F0200F23D011463C
:100FC8001268C2F3C102484BD34007EE103AF8EE5C
:100FD800476A07EE100AB8EE476A86EE867A0B6B08
:100FE800C3F3080306EE903AF8EE666A9FED406A8E
:100FF80067EE867A76EEA77AF7EE006A77EEA67A3B
:1010080027EE277A38E007EE100AF8EE476A9FEDD8
:10101800396A86EE267A324B1B6BC3F3080306EE59
:10102800903AF8EE666A9FED326A67EE867A76EE57
:10103800A77AF7EE006A77EEA67A27EE277A1BE002
:1010480007EE100AF8EE476A9FED286A86EE267AC0
:10105800234B1B6BC3F3080306EE903AF8EE666A5F
:101068009FED236A67EE867A76EEA77AF7EE006A36
:1010780077EEA67A27EE277A194B1B6BC3F3462324
:10108800013307EE903AF8EE677AC7EE276AFCEE6E
:10109800E67A17EE900A5DF8044B704707EE100ADF
:1010A800F8EE476A9FED146A86EE267A0C4B1B6BA6
:1010B800C3F3080306EE903AF8EE666A9FED0C6AF1
:1010C80067EE867A76EEA77AF7EE006A77EEA67A6A
:1010D80027EE277AD0E7094870470348704700BFD2
:1010E8000044025800093D000090D0030024744ACF
:1010F800000000390024744C20BCBE4B40787D01B0
:1011080008B5FFF703FF0A498B69C3F30323094AAC
:10111800D35C03F01F03D8408B6903F00F03D35C43
:1011280003F01F03D840044B1860044B186008BD37
:1011380000440258D44F10080C000010080000109A
:1011480008B5FFF7DDFF054BDB69C3F30213044A5B
:10115800D35C03F01F03D84008BD00BF0044025809
:10116800D44F1008404B9B6A03F00303032B79D03C
:1011780070B505460E463C4A136823F08063136039
:1011880001F0B4FE0446384B1B6813F0006F06D01C
:1011980001F0ACFE031B022BF5D9032070BD324BC6
:1011A8009A6A22F47C32296842EA01329A626A68B1
:1011B800013AC2F30802A9680139490289B20A430F
:1011C800E9680139090401F4FE010A432969013972
:1011D800090601F0FE410A439A63DA6A22F0C00266
:1011E80069690A43DA62DA6A22F02002A9690A43C5
:1011F800DA62DA6A22F01002DA62D96B1B4A0A4014
:10120800E96942EAC102DA63DA6A42F01002DA6294
:10121800C6B91A46DB6A43F40023D362124A13683C
:1012280043F08063136001F061FE04460E4B1B68B7
:1012380013F0006F14D101F059FE001B0228F5D9F4
:101248000320ABE7012E05D0074AD36A43F4001305
:10125800D362E3E7044AD36A43F48013D362DDE739
:1012680000209BE701207047004402580700FFFF59
:10127800404B9B6A03F00303032B79D070B50546F6
:101288000E463C4A136823F08053136001F02EFE8B
:101298000446384B1B6813F0005F06D001F026FEA9
:1012A800031B022BF5D9032070BD324B9A6A22F03A
:1012B8007C72296842EA01529A626A68013AC2F36A
:1012C8000802A9680139490289B20A43E968013963
:1012D800090401F4FE010A4329690139090601F0EC
:1012E800FE410A431A64DA6A22F4406269690A43D1
:1012F800DA62DA6A22F40072A9690A43DA62DA6AFF
:1013080022F48072DA62596C1B4A0A40E96942EA9F
:10131800C1025A64DA6A42F48072DA62C6B91A46BD
:10132800DB6A43F48003D362124A136843F08053A4
:10133800136001F0DBFD04460E4B1B6813F0005FE1
:1013480014D101F0D3FD001B0228F5D90320ABE727
:10135800012E05D0074AD36A43F08073D362E3E7CE
:10136800044AD36A43F40003D362DDE700209BE715
:1013780001207047004402580700FFFFF8B50446F3
:10138800036813F0006F30D0836EB3F5001F26D0CA
:101398000ED8EBB1B3F5801F07D102210830FFF753
:1013A800E1FE054645B12E4621E0012635461EE000
:1013B800B3F5401F09D10025984A136D23F4401353
:1013C800A16E0B431365002611E0012635460EE099
:1013D800924AD36A43F40033D3620025ECE7022132
:1013E8002830FFF745FF0546DCE700263546236829
:1013F80013F4807F14D0A36D042B32D8DFE803F0F8
:1014080003232A080800854AD36A43F40033D362C9
:1014180055BB824A136D23F00703A16D0B43136577
:10142800236813F4007F31D0E36D802B4CD020D893
:10143800002B43D0402B19D1002104F10800FFF7FD
:1014480091FE05461AE0002104F10800FFF78AFE24
:101458000546DDE7002104F12800FFF709FF0546EE
:10146800D6E701263546DBE72E46D9E7012635467D
:101478000CE0C02B02D0B3F5807F1CD15DBB674A5E
:10148800136D23F4E073E16D0B431365236813F4C4
:10149800806F46D0D4F8A830B3F5800F39D01FD864
:1014A8008BB3B3F5001F18D1002104F10800FFF732
:1014B80059FE05461AE001263546E7E7574AD36A3A
:1014C80043F40033D362D9E7002104F12800FFF781
:1014D800CFFE0546D2E72E46D8E70126354620E05E
:1014E800B3F5C00F02D0B3F5000F09D1C5B94B4A07
:1014F800936D23F46003D4F8A8100B43936510E0B0
:10150800012635460DE0454AD36A43F40033D362D9
:10151800ECE7002104F12800FFF7AAFE0546E5E7FD
:101528002E46236813F4006F24D0D4F8AC30B3F1FE
:10153800007F42D00ED8002B39D0B3F1807F06D17E
:10154800002104F10800FFF70DFE054608E001261A
:1015580035460FE0B3F1407F02D0B3F1806F23D15D
:10156800002D31D12D4A936D23F0E063D4F8AC10EF
:101578000B439365236813F0007F2ED0E36C202B78
:1015880040D026D833B1102B20D1244AD36A43F453
:101598000033D362002D3CD1204AD36C23F03003B2
:1015A800E16C0B43D36418E001263546E2E71B4A99
:1015B800D36A43F40033D362D2E7002104F1280050
:1015C800FFF756FE0546CBE72E46D3E701263546FC
:1015D80003E0302BDED001263546236813F4805F04
:1015E8002DD0236EB3F5005F4FD019D8002B46D00D
:1015F800B3F5805F0FD1002104F10800FFF7B2FDB9
:10160800054613E0022104F10800FFF7ABFD05468B
:10161800C0E72E46E1E70126354610E000440258AF
:10162800B3F5405F02D0B3F5804F25D1002D33D1FB
:10163800774A136D23F4E043216E0B431365236847
:1016480013F4005F38D0636EB3F5003F53D028D849
:1016580043B1B3F5803F21D1012104F10800FFF720
:1016680081FD0546002D4DD1694A136D23F4E02311
:10167800616E0B4313651FE001263546DFE7644AB8
:10168800D36A43F40033D362D0E7002104F1280081
:10169800FFF7EEFD0546C9E72E46D0E70126354699
:1016A8000AE0B3F5802FDDD0B3F5A02FDAD0B3F57B
:1016B800403FD7D001263546236813F4804F31D0F8
:1016C800D4F8B030B3F1005F45D020D843B1B3F1BE
:1016D800805F19D1012104F10800FFF743FD054699
:1016E800002D3FD14A4A936D23F0E043D4F8B0105F
:1016F8000B43936516E0012104F12800FFF7B8FDBC
:101708000546AFE72E46D7E7012635460AE0B3F18E
:10171800804FE5D0B3F1A04FE2D0B3F1405FDFD006
:1017280001263546236813F4004F09D0236FB3F11F
:10173800805F19D0B3F1005F24D0D3B101263546BC
:10174800236813F0807F33D0A36C032B5BD8DFE8CA
:1017580003F027225327012104F12800FFF788FD11
:101768000546BDE72E46DDE7294AD36A43F4003330
:10177800D36275B9264A136D23F04053216F0B438A
:101788001365DDE7012104F10800FFF7EBFC0546CE
:10179800EFE72E46D4E71E4AD36A43F40033D362F8
:1017A800A5BB1B4AD36C23F00303A16C0B43D36482
:1017B800236813F4800F2DD1236813F0010F00F074
:1017C800A580E36F282B00F29F80DFE803F08D9D52
:1017D8009D9D9D9D9D9D879D9D9D9D9D9D9D969D4E
:1017E8009D9D9D9D9D9D8D9D9D9D9D9D9D9D8D9D41
:1017F8009D9D9D9D9D9D8D00022104F10800FFF790
:10180800B1FC0546CCE701263546D1E72E46CFE7A1
:1018180000440258914A136843F48073136001F03E
:1018280065FB07468D4B1B6813F4807F05D101F0DB
:101838005DFBC01B6428F5D90325002D4AD1884BD0
:101848001B6FD4F8B420534013F4407F0CD0844B62
:101858001A6F22F44072196F41F480311967196FB9
:1018680021F4803119671A67D4F8B430B3F5807F52
:1018780015D08DBBD4F8B43003F44072B2F5407F74
:101888001ED0774A136923F47C53136174490B6F94
:10189800D4F8B420C2F30B0213430B678CE701F0B2
:1018A80025FB07466E4B1B6F13F0020FE1D101F0C9
:1018B8001DFBC01B41F288339842F3D90325D8E7B2
:1018C8006748026922F47C52664901EA13131343FC
:1018D8000361DBE72E466FE72E466DE7012104F131
:1018E8000800FFF73FFC0546E5B95D4A536D23F054
:1018F8003803E16F0B43536508E0012104F1280028
:10190800FFF7B6FC0546EFE701263546236813F0D6
:10191800020F17D0A36F052B28D8DFE803F00B05BB
:10192800200B0B0B2E46F1E7012104F10800FFF70D
:1019380019FC0546EDB94A4A536D23F00703A16F18
:101948000B435365236813F0040F23D0D4F8943065
:10195800052B45D8DFE803F0150F3D1515150121B6
:1019680004F12800FFF784FC0546E3E70126354625
:10197800E8E72E46E6E7012104F10800FFF7F2FB4D
:10198800054685BB364A936D23F00703D4F89410B7
:101998000B439365236813F0200F34D0D4F89030AC
:1019A800B3F1005F4ED023D843B1B3F1805F1CD1AF
:1019B800002104F10800FFF7D5FB0546002D48D1AA
:1019C800274A536D23F0E043D4F890100B43536536
:1019D80019E0012104F12800FFF74AFC0546D0E789
:1019E80001263546D6E72E46D4E7012635460AE0D5
:1019F800B3F1804FE2D0B3F1A04FDFD0B3F1405F35
:101A0800DCD001263546236813F0400F37D0D4F8D0
:101A18009C30B3F5006F53D026D843B1B3F5806F2F
:101A280019D1002104F10800FFF79CFB0546002DA1
:101A38004DD10B4A936D23F4E053D4F89C100B431B
:101A480093651CE0022104F12800FFF711FC05460C
:101A5800B4E72E46D7E70126354610E0004802587D
:101A680000440258CFFFFF00B3F5805FDFD0B3F525
:101A7800A05FDCD0B3F5406FD9D001263546236886
:101A880013F0800F33D0D4F8A030B3F5804F00F0B6
:101A9800A38021D843B1B3F5005F1AD1002104F126
:101AA8000800FFF75FFB0546002D40F09C80814A47
:101AB800936D23F46043D4F8A0100B43936516E0AC
:101AC800022104F12800FFF7D3FB0546AFE72E46B5
:101AD800D5E7012635460AE0B3F5004FE4D0B3F563
:101AE800204FE1D0B3F5C04FDED00126354623683C
:101AF80013F0080F0CD0D4F88430B3F5805F74D09D
:101B08006C4A536D23F44053D4F884100B43536547
:101B1800236813F0100F0CD0D4F89830B3F5807FF9
:101B28006CD0644A936D23F44073D4F898100B4337
:101B38009365236813F4002F0BD0D4F8A430B3F5C1
:101B4800803F74D0B3F5003F67D0002B5FD00126EB
:101B58003546236813F4802F0CD0D4F88830B3F5B9
:101B6800001F7CD0B3F5401F6FD0B3F5801F67D03E
:101B780001263546236813F4803F08D0236D002BD7
:101B880076D0B3F5803F00F0818001263546236882
:101B980013F0005F40F08380236813F4003F00F0E7
:101BA8008E80D4F88030B3F5807F00F0EC8040F26E
:101BB8008380B3F5007F03D0B3F5407F40F0E18028
:101BC800002D40F0E6803B4A536D23F44073D4F86F
:101BD80080100B43536572E0022104F12800FFF7DF
:101BE80047FB054660E72E4681E7022104F12800FD
:101BF800FFF73EFB002883D0012681E7022104F18C
:101C08002800FFF735FB00288BD0012689E7002143
:101C180004F10800FFF7A6FA05467DB9254A936D39
:101C280023F44033D4F8A4100B43936591E70221C1
:101C380004F12800FFF71CFB0546EEE72E4688E76F
:101C48001C4AD36A43F40033D3627DB9194A536DF1
:101C580023F44013D4F888100B4353658AE7012115
:101C680004F12800FFF704FB0546EEE72E4681E75E
:101C7800104AD36A43F40033D36275B90D4AD36C62
:101C880023F48033216D0B43D36480E7022104F1F0
:101C98000800FFF767FA0546EFE72E4677E70221C7
:101CA80004F12800FFF7E4FA00283FF475AF012695
:101CB80072E700BF00440258002B81D00126236838
:101CC80013F4801F06D04F4A136D23F00043616F51
:101CD8000B431365236813F0805F07D0494A1369E3
:101CE80023F48043D4F8B8100B431361236813F42A
:101CF800001F06D0434A136D23F08073E16E0B4337
:101D08001365236813F0804F09D03E4B1A6922F4FB
:101D180000421A611A69D4F8BC100A431A61236890
:101D2800002B06DA374AD36C23F04053616D0B431E
:101D3800D364236813F4000F07D0324A536D23F499
:101D48004003D4F88C100B435365636813F0010FFC
:101D580021D1636813F0020F26D1636813F0040FD2
:101D68002BD1636813F0080F30D1636813F0100F9C
:101D780035D1636813F0200F3AD106B101263046F9
:101D8800F8BD01269BE71F4AD36A43F40033D362A8
:101D980016E72E4693E7002104F10800FFF7E2F961
:101DA8000028D6D00646D4E7012104F10800FFF741
:101DB800D9F90028D1D00646CFE7022104F108005E
:101DC800FFF7D0F90028CCD00646CAE7002104F175
:101DD8002800FFF74DFA0028C7D00646C5E70121BD
:101DE80004F12800FFF744FA0028C2D00646C0E7ED
:101DF800022104F12800FFF73BFA0028BDD006466F
:101E0800BBE700BF0044025808B5FFF779F9054B56
:101E18001B6AC3F30213044AD35C03F01F03D840C0
:101E280008BD00BF00440258D44F100810B5774AC7
:101E3800916A946AC4F3053ED36AC3F3001CD36B5A
:101E4800C3F3CC030CFB03F314F47C3F00F0D880FD
:101E580001F0030107EE903AF8EE677A012965D0A0
:101E6800022900F0B080E1B107EE10EAB8EE477A37
:101E78009FED676AC6EE076A644B9B6BC3F3080362
:101E880007EE103AB8EE477A9FED626A67EE867AF7
:101E980077EE277AB7EE007A77EE877A66EEA76A4A
:101EA80060E0136813F0200F23D011461268C2F3C4
:101EB800C102594BD34007EE103AB8EE477A06EE06
:101EC80090EAB8EE666AC7EE066A8B6BC3F308033E
:101ED80007EE103AB8EE477A9FED4E6A67EE867ABB
:101EE80077EE277AB7EE007A77EE877A66EEA76AFA
:101EF80038E007EE10EAB8EE477A9FED486AC6EE7A
:101F0800076A424B9B6BC3F3080307EE103AB8EE1F
:101F1800477A9FED406A67EE867A77EE277AB7EEC2
:101F2800007A77EE877A66EEA76A1BE007EE10EA7A
:101F3800B8EE477A9FED366AC6EE076A334B9B6B5D
:101F4800C3F3080307EE103AB8EE477A9FED316AFB
:101F580067EE867A77EE277AB7EE007A77EE877A99
:101F680066EEA76A294A936BC3F3462307EE103A35
:101F7800B8EE477AB7EE006A37EE067AC6EE877A89
:101F8800FCEEE77AC0ED007A936BC3F3064307EEE5
:101F9800103AB8EE477A37EE067AC6EE877AFCEE44
:101FA800E77AC0ED017A936BC3F3066307EE903AC4
:101FB800F8EE677A77EE867A86EEA77ABCEEC77A6D
:101FC80080ED027A10BD07EE10EAB8EE477A9FED71
:101FD800146AC6EE076A0D4B9B6BC3F3080307EE42
:101FE800103AB8EE477A9FED0B6A67EE867A77EE7D
:101FF800277AB7EE007A77EE877A66EEA76AB1E7B6
:102008000023036043608360DCE700BF004402589C
:102018000024744A000000390090D0030024744C56
:1020280020BCBE4B10B5774A916A946AC4F3055E2A
:10203800D36AC3F3002C536CC3F3CC030CFB03F338
:1020480014F07C7F00F0D88001F0030107EE903A8D
:10205800F8EE677A012965D0022900F0B080E1B175
:1020680007EE10EAB8EE477A9FED676AC6EE076A90
:10207800644B1B6CC3F3080307EE103AB8EE477ABB
:102088009FED626A67EE867A77EE277AB7EE007A76
:1020980077EE877A66EEA76A60E0136813F0200F80
:1020A80023D011461268C2F3C102594BD34007EE40
:1020B800103AB8EE477A06EE90EAB8EE666AC7EECE
:1020C800066A0B6CC3F3080307EE103AB8EE477ABA
:1020D8009FED4E6A67EE867A77EE277AB7EE007A3A
:1020E80077EE877A66EEA76A38E007EE10EAB8EE70
:1020F800477A9FED486AC6EE076A424B1B6CC3F3EA
:10210800080307EE103AB8EE477A9FED406A67EE8B
:10211800867A77EE277AB7EE007A77EE877A66EED8
:10212800A76A1BE007EE10EAB8EE477A9FED366A19
:10213800C6EE076A334B1B6CC3F3080307EE103A6D
:10214800B8EE477A9FED316A67EE867A77EE277A9E
:10215800B7EE007A77EE877A66EEA76A294A136C9B
:10216800C3F3462307EE103AB8EE477AB7EE006A93
:1021780037EE067AC6EE877AFCEEE77AC0ED007A8B
:10218800136CC3F3064307EE103AB8EE477A37EEFE
:10219800067AC6EE877AFCEEE77AC0ED017A136C10
:1021A800C3F3066307EE903AF8EE677A77EE867A1D
:1021B80086EEA77ABCEEC77A80ED027A10BD07EEEC
:1021C80010EAB8EE477A9FED146AC6EE076A0D4B1F
:1021D8001B6CC3F3080307EE103AB8EE477A9FED7D
:1021E8000B6A67EE867A77EE277AB7EE007A77EE93
:1021F800877A66EEA76AB1E70023036043608360CD
:10220800DCE700BF004402580024744A000000398B
:102218000090D0030024744C20BCBE4B10B5774A04
:10222800916A946AC4F3051ED36A03F0010C536BD8
:10223800C3F3CC030CFB03F314F47C7F00F0D880C9
:1022480001F0030107EE903AF8EE677A012965D0AC
:10225800022900F0B080E1B107EE10EAB8EE477A43
:102268009FED676AC6EE076A644B1B6BC3F30803EE
:1022780007EE103AB8EE477A9FED626A67EE867A03
:1022880077EE277AB7EE007A77EE877A66EEA76A56
:1022980060E0136813F0200F23D011461268C2F3D0
:1022A800C102594BD34007EE103AB8EE477A06EE12
:1022B80090EAB8EE666AC7EE066A0B6BC3F30803CA
:1022C80007EE103AB8EE477A9FED4E6A67EE867AC7
:1022D80077EE277AB7EE007A77EE877A66EEA76A06
:1022E80038E007EE10EAB8EE477A9FED456AC6EE89
:1022F800076A424B1B6BC3F3080307EE103AB8EEAC
:10230800477A9FED406A67EE867A77EE277AB7EECE
:10231800007A77EE877A66EEA76A1BE007EE10EA86
:10232800B8EE477A9FED396AC6EE076A334B1B6BE6
:10233800C3F3080307EE103AB8EE477A9FED316A07
:1023480067EE867A77EE277AB7EE007A77EE877AA5
:1023580066EEA76A294A136BC3F3462307EE103AC1
:10236800B8EE477AB7EE006A37EE067AC6EE877A95
:10237800FCEEE77AC0ED007A136BC3F3064307EE71
:10238800103AB8EE477A37EE067AC6EE877AFCEE50
:10239800E77AC0ED017A136BC3F3066307EE903A50
:1023A800F8EE677A77EE867A86EEA77ABCEEC77A79
:1023B80080ED027A10BD07EE10EAB8EE477A9FED7D
:1023C800146AC6EE076A0D4B1B6BC3F3080307EECE
:1023D800103AB8EE477A9FED0B6A67EE867A77EE89
:1023E800277AB7EE007A77EE877A66EEA76AB1E7C2
:1023F8000023036043608360DCE700BF00440258A9
:102408000024744C000000390090D0030024744A62
:1024180020BCBE4B00B58BB0A0F580730B432ED00B
:10242800A0F500730B437ED0A0F580630B4300F04A
:10243800D480A0F500630B4300F02C81A0F58053F5
:102448000B4300F08B81A0F500530B4300F0E381B0
:10245800A0F500230B4300F02C82A0F580330B433A
:1024680000F06F82A0F580430B4300F09082A0F546
:10247800004050EA010300F0D382002001E3954BAD
:102488001B6D03F00703042B00F2F282DFE803F070
:1024980005101B0326009048F3E28E4B186810F0D5
:1024A800007000F0EE8207A8FFF7B8FE0898E8E28F
:1024B800884B186810F0006000F0E38204A8FFF76A
:1024C800B5FC0498DDE2834B186810F0005000F06A
:1024D800D88201A8FFF7A6FD0198D2E27D4AD36C05
:1024E80003F04053126812F0040F07D033B9794B48
:1024F8001B68C3F3C1037948D840C2E2754A126821
:1025080012F4807F03D0B3F1805F00F0B382714A88
:10251800126812F4003F00F0AF82B3F1005F00F0E0
:10252800AD820020ADE26B4B1B6D03F4E073802B92
:1025380033D015D9C02B00F0A382B3F5807F1FD10B
:10254800644AD36C03F04053126812F0040F2FD082
:1025580073BB604B1B68C3F3C1036048D84090E26B
:1025680083B1402B0AD15B4B186810F0006000F073
:10257800888204A8FFF75AFC049882E2002080E2CF
:1025880000207EE2534B186810F0007000F079824A
:1025980007A8FFF743FE089873E24E4B186810F03F
:1025A800005000F06E8201A8FFF73CFD019868E238
:1025B800484A126812F4807F03D0B3F1805F00F0BC
:1025C8006382444A126812F4003F00F05F82B3F15C
:1025D800005F00F05D82002053E23E4B9B6D03F4E8
:1025E8006003B3F5800F35D016D9B3F5C00F00F0EE
:1025F8005182B3F5000F20D1364AD36C03F0405313
:10260800126812F0040F30D07BBB324B1B68C3F347
:10261800C1033248D84034E28BB1B3F5001F0AD168
:102628002C4B186810F0006000F02B8204A8FFF70C
:10263800FDFB049825E2002023E2002021E2254B3F
:10264800186810F0007000F01C8207A8FFF7E6FD7C
:10265800089816E21F4B186810F0005000F011821D
:1026680001A8FFF7DFFC01980BE21A4A126812F47E
:10267800807F03D0B3F1805F00F00E82154A1268A4
:1026880012F4003F00F00A82B3F1005F00F0088204
:102698000020F6E10F4B9B6D03F0E063B3F1007F80
:1026A8003CD01DD9B3F1407F00F0FC81B3F1806FBD
:1026B80027D1084AD36C03F04053126812F0040F74
:1026C80037D0002B35D1034B1B68C3F3C103034834
:1026D800D840D6E1004402580080BB000090D003E7
:1026E8008BB1B3F1807F0AD19A4B186810F0006063
:1026F80000F0C78104A8FFF799FB0498C1E1002006
:10270800BFE10020BDE1934B186810F0007000F0A5
:10271800B88107A8FFF782FD0898B2E18D4B1868C9
:1027280010F0005000F0AD8101A8FFF77BFC019884
:10273800A7E1884A126812F4807F03D0B3F1805F62
:1027480000F0B281834A126812F4003F00F0AE81B3
:10275800B3F1005F00F0AC81002092E17D4B1B6D6E
:1027680003F4E043B3F5005F35D016D9B3F5405F05
:1027780000F0A081B3F5804F20D1764AD36C03F0E6
:102788004053126812F0040F30D07BBB714B1B68AA
:10279800C3F3C1037048D84073E18BB1B3F5805FD0
:1027A8000AD16C4B186810F0006000F06A8104A828
:1027B800FFF73CFB049864E1002062E1002060E13F
:1027C800644B186810F0007000F05B8107A8FFF7F1
:1027D80025FD089855E15F4B186810F0005000F08F
:1027E800508101A8FFF71EFC01984AE1594A126876
:1027F80012F4807F03D0B3F1805F00F05D81554A09
:10280800126812F4003F00F05981B3F1005F00F044
:102818005781002035E14F4B1B6D03F4E023B3F5DE
:10282800403F32D016D8B3F5803F23D0B3F5003FF0
:102838000AD1484B186810F0005000F0228101A816
:10284800FFF7F0FB02981CE113B9FEF779FC18E1D9
:10285800002016E1B3F5802F23D0B3F5A02F07D1C0
:102868003C4B186810F4003000F00B813B4808E13D
:10287800002006E1374B186810F0006000F0018175
:1028880004A8FFF7D3FA0598FBE0324B186810F05C
:10289800040000F0F6801B68C3F3C1032E48D8403B
:1028A800EFE02C4B186810F4807000F0EA802C4898
:1028B800E7E0284B9B6D03F44033B3F5803F10D01D
:1028C800B3F5003F18D00BB10020DAE0214B1868AF
:1028D80010F0006000F0D58004A8FFF7A7FA04986C
:1028E800CFE01C4B186810F0005000F0CA8001A817
:1028F800FFF798FB0398C4E0164AD36C03F04053E3
:10290800126812F0040F07D033B9124B1B68C3F3D7
:10291800C1031148D840B4E00E4A126812F4807F0F
:1029280003D0B3F1805F00F0CD800A4A126812F438
:10293800003F00F0C980B3F1005F00F0C7800020BD
:102948009FE0044BDB6C13F480330BD0ABB9002051
:1029580097E000BF004402580090D00340787D0102
:1029680000093D005A4B186810F0007000F089808B
:1029780007A8FFF753FC089883E0554B186810F038
:1029880000607ED004A8FFF751FA069879E0504B12
:102998009B6D03F0E043B3F1405F2FD015D8B3F13E
:1029A800805F21D0B3F1005F09D1494B186810F05E
:1029B800005066D001A8FFF735FB029861E013B913
:1029C800FFF722FA5DE000205BE0B3F1804F20D0F2
:1029D800B3F1A04F06D13E4B186810F4003050D028
:1029E8003C484EE000204CE0394B186810F000607D
:1029F80047D004A8FFF71AFA059842E0344B186844
:102A080010F004003DD01B68C3F3C1033248D8401E
:102A180037E02F4B186810F4807032D02F4830E020
:102A28002B4B1B6D03F04053B3F1805F0CD0B3F117
:102A3800005F13D00BB1002023E0254B186810F479
:102A480000301ED023481CE0214B186810F000709D
:102A580017D007A8FFF7E2FB089812E01C4B18688C
:102A680010F000600DD004A8FFF7E0F9059808E021
:102A7800002006E0194804E0002002E0154800E0C4
:102A880017480BB05DF804FB1448FAE70020F8E794
:102A98001048F6E71248F4E71048F2E70020F0E79C
:102AA8000C48EEE70E48ECE70C48EAE70020E8E7B8
:102AB8000848E6E70A48E4E70848E2E70020E0E7D4
:102AC8000448DEE70548DCE70020DAE70148D8E7F4
:102AD8000044025840787D010090D00300093D0071
:102AE8000080BB00F0B583B000236BE085685E0012
:102AF8000324B44025EA0405CC68B4402C43846020
:102B0800446824EA0C0C4C68C4F300149C4044EA62
:102B18000C04446068E0DD08083550F8256003F0CF
:102B280007044FEA840C0F2404FA0CF426EA040E76
:102B38000C6904FA0CF444EA0E0440F825406BE0F2
:102B4800092400E0002404FA0EF42C430CF1020CD2
:102B5800694D45F82C404FF0B0442568D44325EA28
:102B680002064F6817F4801F01D042EA05064FF0AD
:102B7800B0452E606D6804EA05064F6817F4001F1B
:102B880001D042EA05064FF0B0456E60D5F8C45052
:102B980004EA05064F6817F4003F01D042EA05062B
:102BA8004FF0B045C5F8C460D5F8C0502C404E6809
:102BB80016F4803F01D042EA05044FF0B042C2F853
:102BC800C04001330A6832FA03F400F092804FF0F3
:102BD800010C0CFA03FC1CEA0202F2D04C6804F067
:102BE8000304013C012C81D94C6804F00304032C34
:102BF8000CD0C4685D004FF0030C0CFA05FC24EA05
:102C08000C0C8C68AC4044EA0C04C4604C6804F0BA
:102C18000304022C3FF47FAF04684FEA430E4FF0E1
:102C2800030C0CFA0EFC24EA0C0C4C6804F00304A8
:102C380004FA0EF444EA0C0404604C6814F4403FAF
:102C4800BFD02E4CD4F8F45045F00205C4F8F45027
:102C5800D4F8F44004F002040194019C4FEA930C68
:102C68000CF10205244C54F8255003F003044FEAF4
:102C7800840E0F2404FA0EF425EA0405204CA04221
:102C88003FF460AF04F58064A04222D004F580646C
:102C9800A04220D004F58064A0421ED004F58064D0
:102CA800A0421CD004F58064A0421AD004F58064C8
:102CB800A04218D004F58064A04216D004F58064C0
:102CC800A04214D004F58064A0423FF439AF0A242E
:102CD80039E7012437E7022435E7032433E70424DE
:102CE80031E705242FE706242DE707242BE70824DE
:102CF80029E703B0F0BD00BF0004005800440258A3
:102D080000000258024A136903431361704700BF69
:102D18000065025838B50D46284C236823F0010396
:102D2800034323605AB1012A25D0FEF7E3F80328AC
:102D38003ED0224A536923F00403536138BDFEF79D
:102D4800D9F80328FAD1236923F0010323611C4A27
:102D5800136943F004031361BFF34F8FBFF36F8F01
:102D6800012D06D020BF164A136923F0040313610E
:102D7800E4E730BFF7E7FEF7BDF80128DED10F4AD8
:102D8800536923F0020353610D4A136943F00403A6
:102D98001361BFF34F8FBFF36F8F012D06D020BF94
:102DA800074A136923F004031361C7E730BFF7E745
:102DB800024A136923F004031361BFE7004802586D
:102DC80000ED00E008B5FEF795F8032802D040BFF3
:102DD80020BF08BD20BFFCE7024AD36843F08073D8
:102DE800D360704700480258104B1B780BB901207C
:102DF800704710B504464FF47A70B0FBF3F30C4AF1
:102E08001068B0FBF3F0FEF761F868B90F2C01D930
:102E180001200AE0002221464FF0FF30FEF720F89B
:102E2800044B1C60002000E0012010BD00000010D1
:102E3800080000100400001010B582B01F4CD4F830
:102E4800D83043F48043C4F8D830D4F8D83003F4E9
:102E580080430193019B1A4AD2F80014194B0B4086
:102E680043F40143C2F80034D2F8003443F00103BC
:102E7800C2F800340320FDF7E1FFFEF747F8A36925
:102E8800C3F30323104AD35C03F01F03D840A3699C
:102E980003F00F03D35C03F01F03D8400B4B1860FB
:102EA8000B4B18600020FFF79FFF18B10124204644
:102EB80002B010BD0446FDF7CBFCF8E70044025809
:102EC80000400240FF00F0FFD44F10080C00001033
:102ED80008000010034B1B78034A11680B44136069
:102EE800704700BF00000010100B0010014B18685D
:102EF800704700BF100B001038B50446FFF7F6FF07
:102F08000546B4F1FF3F02D0044B1B781C44FFF781
:102F1800EDFF401BA042FAD338BD00BF00000010EF
:102F2800014B1868000C70470010005C034A536896
:102F380023F4600303435360704700BF0004005844
:102F480030B48B680A6813430A7943EAC2630A7B80
:102F580043EAC2534A7B43EA82538A7B43EA425399
:102F6800CA7B43EA02530A7C002A40F0B0804FF43F
:102F7800002213434A7C002A40F0AB804FF4003211
:102F880013438A7C43EA02434A6913438A69134319
:102F98000A7F43EA02334A7F43EAC2238A7F002A30
:102FA80040F099804FF480621343CA7F43EA42237A
:102FB80091F82020002A40F090804FF4807213434B
:102FC8004A6A134391F8282043EA0213CA6A134352
:102FD8000468226822F07F4222F47B0222F4FE4237
:102FE80022F07C0213432360CA6B91F838301B0629
:102FF80043EA426391F8302043EA824391F8312052
:1030080043EA424391F83220002A68D14FF48032D3
:1030180013434A6B13430468626822F07C5222F41B
:10302800EF2222F4FF6222F007021343636091F853
:1030380040204B6C43EA02220468E5682B4B2B4086
:103048001343E36091F854200B6D43EA420391F86F
:103058004C20002A45D1802213438A6C43EA02435C
:103068000468226F22F0F2021204120C1343236741
:1030780091F8563091F8552043EA42020468D4F892
:10308800903023F003031343C4F890300268D2F859
:10309800003D23F072038C6D2343C2F8003DCB6DD5
:1030A80091F86020FAB94022134391F8612043EA6D
:1030B800021391F8622043EAC2030168D1F8302D67
:1030C80022F07B021343C1F8303D30BC7047002228
:1030D8004FE7002254E7002266E700226FE700224C
:1030E80096E70022B8E70022DEE700BFF0FEFFFF08
:1030F80010B4026802F580521468244B23400C680F
:10310800234313600A798B6843EA02330A7B43EA54
:10311800C232036803F5805CDCF804401C4B234092
:103128001343CCF8043091F80DC00B6A43EA0C4CF9
:10313800026802F58052D2F80041164B234043EA58
:103148000C03C2F800310B690A7D43EA02134A7F77
:1031580043EA0232036803F5805CDCF804410E4B55
:1031680023401343CCF804310A7F896941EAC271CC
:10317800026802F58052D2F80801084B03400B435D
:10318800C2F808315DF8044B704700BFFD87FFFFA8
:10319800FE2FFFFF00C0FEFFEFEFC0FFFFFFC07F65
:1031A80070B5A2B0064601258DF83350002412945C
:1031B8008DF841408DF843408DF828508DF85650D1
:1031C8008DF832508DF84C408DF884504FF40053F0
:1031D8000F938DF85C4018948DF885408DF88640E3
:1031E8004FF4C36316938DF830400B948DF8355027
:1031F8008DF836408DF840401D941B9414948DF83A
:1032080064408DF87A408DF84250202320938DF841
:1032180044508DF855404FF0405309934FF4804384
:103228000E938DF8314002231F938DF878408DF866
:1032380079408DF854408DF834501A948DF87050B8
:1032480009A9FFF77DFE8DF80450029500948DF8CA
:103258001C408DF80D408DF80C404FF40013069378
:103268008DF8144004938DF81D404FF406730893AD
:1032780069463046FFF73CFF22B070BD10B400220B
:1032880010E0C46802EB42034FEAC30C04EBC3032B
:10329800002144F80C1059609960D960911D40F8DC
:1032A80021300132032AECD900238362036803F535
:1032B80080530322C3F82C21C268036803F58053A6
:1032C800C3F81421C268036803F58053C3F82021AA
:1032D8005DF8044B704710B4002113E0046901EB5A
:1032E80041034FEAC30C04EBC303002244F80C204B
:1032F8005A609A60DA601A615A6101F1120240F864
:10330800223001310329E9D90023C36503668366A6
:10331800C3668365036803F580530322C3F830212D
:103328000269036803F58053C3F81C21036903F19C
:103338004802036803F58053C3F828215DF8044B5D
:103348007047000038B505460368D3F8004224F4F6
:103358007064FDF7D5FE104B984205D844F400740C
:103368002B68C3F8004238BD0C4B984202D244F493
:103378004074F5E70A4B9842F2D90A4B984202D8B2
:1033880044F48074ECE7084B984202D844F4806413
:10339800E6E744F4A064E3E7BF0E16020087930350
:1033A800FFE0F5057FD1F0087FB2E60E002800F0B7
:1033B800A78030B583B00446D0F884309BB3514B16
:1033C800D3F8F42042F00202C3F8F420D3F8F43022
:1033D80003F002030193019B237A53BB0020FFF7FC
:1033E800A5FD494B5B68236803F580531A6842F0D2
:1033F80001021A60FFF77AFD0546236803F580533A
:103408001B6813F0010F19D0FFF770FD401BB0F5D2
:10341800FA7FF2D90423C4F88830E023C4F8843052
:10342800012003B030BD2323C0F88430FDF722FA11
:10343800C5E74FF40000FFF779FDD2E72046FFF714
:1034480081FFFDF75DFE314BA3FB00239B0C226837
:10345800013BC2F8DC302046FFF7A2FE226802F5E5
:103468008052D2F8003123F4E01343F40023C2F869
:103478000031626912F0030F06D00120C4F88800F9
:10348800E023C4F88430CCE7216801F58051D1F8F5
:1034980008011F4B034043EA4203C1F808312046A4
:1034A800FFF7ECFE2046FFF716FF626851791379A3
:1034B800226843EA0123C2F800336268D17893781E
:1034C8001B0443EA0163517843EA01231178226817
:1034D8000B43C2F804332268D2F80C170D4B0B4388
:1034E800C2F80C372268D2F810170B4B0B43C2F8FE
:1034F80010370020C4F888001023C4F8843090E7FF
:1035080001207047004402580004005883DE1B4322
:103518000180FFFF6000020C00C0200CF0B54D6870
:103528000468E368C3F30B431D444FEAC21C04EB71
:10353800C214D4F8883003F47043C4F888300B6898
:103548000468E668C6F30B463344013304EBC2143F
:1035580043EA0543C4F88830CD680468E368C3F3D8
:103568000A031D4404EBC21EDEF88C3003F47043DA
:10357800CEF88C308B680468E668C6F30A0E73448C
:10358800013304EBC21443EA0543C4F88C300368E2
:1035980003EBC213D3F8944024F00704C3F8944013
:1035A800036803EBC2130C69C3F8944091F83170B7
:1035B80091F832608D69046804EBC21404F1840E3A
:1035C800D4F89C300024CEF8184091F8303043EA03
:1035D800072343EA0643066806EBC21E43EA05636F
:1035E800CEF89C300EF1840E036803EBC213D3F8B7
:1035F800985025F0FF05C3F89850036803EBC213F1
:103608004D69C3F89850036803EBC213D3F8A06060
:103618002E4D3540C3F8A0500D6A036803EBC21362
:10362800CE693543C3F8A050036803EBC213D3F83F
:10363800AC50C3F8AC40036803EBC2124B6AC2F843
:10364800AC300B696BB1012B39D0022B18BF042B9E
:1036580037D0032B37D0072B01D0012502E00225F4
:1036680000E0042502686244D2F8B04004F0E02487
:10367800C2F8B0408A6A05FB02F44B680A689B1AD4
:1036880005FB03F307330268624443EA0443C2F8C4
:10369800B03003686344D3F8B4400D4A2240C3F8FD
:1036A800B42003686344CA6AC3F8B42003689C441E
:1036B800DCF8843043F00103CCF88430F0BD0325F6
:1036C800D0E70225CEE70225CCE700BFF8F8FFFFD8
:1036D80000F8FFFF002872D038B5044690F8A130F2
:1036E800002B67D0022384F8A1302268936923F065
:1036F8007043936121688A696368A0680343E0683E
:1037080003432069034313438B6121688A682D4B67
:103718001A408A6020688268A169656941EA0541A2
:103728000A4382602168CA681A40CA602068C26871
:10373800216AE56941EA05410A43C26021680A69CC
:103748001A400A6120680269A16A656A41EA05416E
:103758000A43026121684A6913404B61E06A2168A3
:103768004B69226B42EA004213434B6194F83500DF
:1037780094F836301B042168CA6A02F07F42CA6294
:103788002168CA6A43EA002394F8340003431343C8
:10379800CB622268536B43F0060353632268936934
:1037A80043F0010393610020C4F8A400012384F8C6
:1037B800A13038BD80F8A030FDF740F992E701202C
:1037C800704700BF00F800F0F8B590F8A030012B62
:1037D8002CD004460D461646012780F8A070022317
:1037E80080F8A1304FF0340C0CFB020C0CF1380CB3
:1037F8008E46BEE80F00ACE80F00BEE80F00ACE84C
:103808000F00BEE80F00ACE80F00DEF80030CCF87F
:103818000030324629462046FFF780FE23685F6263
:1038280084F8A170002084F8A000F8BD0220FCE70D
:103838000E4B1B680E4AA2FB03231B0B9B0001685F
:103848000A6822F480320A603BB1013B02681268C0
:1038580012F4803FF8D100207047D0F8943043F03C
:103868004003C0F894300320704700BF08000010E0
:103878001BECCB952DE9F041002800F0DF810446D0
:10388800FFF74EFB94F83850012D25D02368AD4939
:10389800AD4A934218BF8B422ED001F5806102F5E4
:1038A8008062934218BF8B4243D001F5806102F5D4
:1038B8008062934218BF8B423DD001F1C051A1F5FF
:1038C800863102F1C052A2F58632934218BF8B426C
:1038D80040F0B6819D4E10E023689A499C4A8B427D
:1038E80018BF934240F019816368012B40F015819D
:1038F800636C002BCAD010E1964E94F89130E3B176
:103908002046FFF795FF0546002840F09B810223DB
:1039180084F89130E368012B15D0022B15D12022B1
:10392800A368013B042B12D8DFE803F02513161B0C
:103938002000894EE1E7894EDFE784F89030204681
:10394800FDF700FADCE71022EAE70022E8E70027A3
:1039580013E04FF4006710E042F001024FF40067F3
:103968000BE042F002024FF4006706E042F0030267
:103978004FF4006701E04FF480673260236A002B40
:1039880047D023686F49704A934218BF8B4200F0B2
:10399800C780002023687249724A934218BF8B423D
:1039A80000F0C48023687049704A934218BF8B4264
:1039B80000F0C2802268664B9A4200F0E3802268D9
:1039C8006B4B9A4200F0E480A369B3F5002F00F036
:1039D800E580A36AB3F1806F00F0F480012200EB68
:1039E80080004000236A02FB03F31B02B0FBF3F0E4
:1039F800604BA3FB0023DB08636203EB8302A0EBAD
:103A08004200082801D901336362636C042B00F07B
:103A1800DB806368022B18BF002B40F0DC80236D2D
:103A2800012B00F0D5804FF40078FFF779FAB0F554
:103A3800005FC0F0D980226811684F4B0B401360BB
:103A480021680A686368606C0343A06C0343E06CF8
:103A5800034343EA08033B43E06A034360690343C3
:103A6800A0690343606A43EA0053A06A03432069DC
:103A7800034313430B6022685168404B0B4053606B
:103A880021684A68E369206B0343606B034313436F
:103A98004B60226891683A4B0B40936020688268BB
:103AA800636D013B616E0B43E16D0B43216E0B436C
:103AB800A16D013943EA0123134383602268D36867
:103AC80023F47D6323F00F031B041B0CD3602068D1
:103AD800C268A36EE16E0B43616F43EA0143216F35
:103AE800013943EA01231343C36023681549184A7F
:103AF800934218BF8B4208D1736C23F0010373649F
:103B080094F83830012B00F08E800023C4F89430EC
:103B1800012284F8912084F890302846BDE8F0818D
:103B28004FF480700021FEF775FC33E74FF4007006
:103B38000021FEF76FFC35E74FF400700021FEF717
:103B480069FC37E7045801402458014000540058E4
:103B58000454005800580140005C014000600140D6
:103B6800045C0140245C0140046001402460014081
:103B780024540058CDCCCCCC10C005F0F01FFFFF6A
:103B88000080F8FF4FF480600021FEF743FC16E741
:103B98004FF400600021FEF73DFC15E7636C042B31
:103BA8000BD0082B0BD0626D00EB80004000236A1D
:103BB80002FB03F3B0FBF3F01AE74022F4E74FF4FB
:103BC8008072F1E702220AE7636A5B08636220E712
:103BD8004FF0000829E7236D012B02D04FF00008B1
:103BE80023E74FF4007820E722681168164B0B4052
:103BF800136021680A686368606C0343A06C034320
:103C0800E06C034343EA08033B43E76A3B436769C5
:103C18003B43A0690343606A43EA0053A06A034335
:103C280013430B6027E7236CE26B013A43EA021364
:103C38007364736C43F00103736466E701256CE7F2
:103C480001256AE7012568E710C005F80B4B1B68DA
:103C58000B4AA2FB03235B0A41F2883202FB03F3FF
:103C68001A46013B3AB1426B12F0800FF8D0054B6F
:103C78008363002070474FF0004070470800001031
:103C8800D34D6210C500200084B00DF1040C8CE8FF
:103C98000E000B461343039A1343049A1343059AE1
:103CA80013434168034A0A4013434360002004B0A9
:103CB800704700BF002CC0FFD0F880007047036831
:103CC80043F00303036000207047006800F003001E
:103CD800704700000B6883604B688A681343CA68A2
:103CE80013430A691343C168024A0A401343C36075
:103CF80000207047C0E0FEFF0069C0B27047143072
:103D0800405870470B6843624B6883628B68CA6887
:103D180013430A6913434A691343C26A22F0FF0234
:103D28001343C3620020704710B586B004460023D1
:103D380001930293039304934FF48053059301A9CD
:103D4800FFF7C8FF2046FFF781FF06B010BD00004F
:103D580070B505460E46514B1B685149A1FB03132C
:103D68005B0A03FB02F21346013A002B5ED06C6B30
:103D78004C4B2340002BF6D014F4005FF3D16B6B4F
:103D880013F0040F06D16B6B13F0010F05D001205F
:103D9800A8634DE00420A8634AE0434BAB63284680
:103DA800FFF7AAFFB04201D0012041E000212846D8
:103DB800FFF7A5FF03463D481840C8B3002B38DB82
:103DC80013F0804F38D113F0005F37D113F0805FC4
:103DD80036D113F0006F36D113F0806F36D113F05F
:103DE800807F36D113F4000F36D113F4800F36D10B
:103DF80013F4001F36D113F4801F36D113F4802F2B
:103E080036D113F4003F36D113F4803F36D113F482
:103E1800004F36D113F4804F36D113F4005F36D1FA
:103E280013F0080F36D04FF4000001E04FF00040C7
:103E380070BD4FF00070FBE74020F9E78020F7E7FE
:103E48004FF48070F4E74FF40070F1E74FF48060AE
:103E5800EEE74FF40060EBE74FF48050E8E74FF4EB
:103E68000050E5E74FF48040E2E74FF40040DFE719
:103E78004FF40030DCE74FF48020D9E74FF40020FE
:103E8800D6E74FF48010D3E74FF40010D0E74FF493
:103E98008000CDE74FF48030CAE700BF080000106B
:103EA800D34D621045002000C500200008E0FFFD4A
:103EB80030B587B004460191102502954FF4807300
:103EC8000393002304934FF48053059301A9FFF74C
:103ED80001FF41F2883229462046FFF739FF07B033
:103EE80030BD30B587B004460191072502954FF4DF
:103EF80080730393002304934FF48053059301A91F
:103F0800FFF7E8FE41F2883229462046FFF720FFF6
:103F180007B030BD30B587B00446090401910325C8
:103F280002954FF480730393002304934FF4805356
:103F3800059301A9FFF7CEFE41F2883229462046B3
:103F4800FFF706FF07B030BD30B587B004460191D2
:103F58000D2502954FF480730393002304934FF4C7
:103F68008053059301A9FFF7B5FE41F2883229462F
:103F78002046FFF7EDFE07B030BD30B587B00446E8
:103F88000191062502954FF480730393002304934F
:103F98004FF48053059301A9FFF79CFE41F2883244
:103FA80029462046FFF7D4FE07B030BD30B587B0AC
:103FB80004460191082502954FF48073039300236A
:103FC80004934FF48053059301A9FFF783FE41F250
:103FD800883229462046FFF7BBFE07B030BD0000F7
:103FE8000146144B1B68144AA2FB03235B0A41F2E7
:103FF800883202FB03F31A46013BBAB14A6B12F04E
:10400800450FF8D012F4005FF5D14B6B13F0040F95
:1040180006D1486B10F0010005D1084B8B6370473F
:104028000420886370470120886370474FF0004080
:10403800704700BF08000010D34D6210C500200073
:1040480010B586B0044600230193022202924FF471
:104058004072039204934FF48053059301A9FFF72C
:1040680039FE2046FFF7BCFF06B010BD10B586B07C
:1040780004460191092302934FF4407303930023EC
:1040880004934FF48053059301A9FFF723FE2046BC
:10409800FFF7A6FF06B010BD0146104B1B68104A7B
:1040A800A2FB03235B0A41F2883202FB03F31A46A0
:1040B800013B82B14A6B12F0450FF8D012F4005F51
:1040C800F5D1486B10F0040002D1064B8B637047A2
:1040D8000420886370474FF00040704708000010C4
:1040E800D34D6210C500200010B586B0044601917A
:1040F800012302934FF480730393002304934FF436
:104108008053059301A9FFF7E5FD2046FFF7C4FF9B
:1041180006B010BD70B582B0044600230193006854
:10412800FFF702FE064608BB0546A5B9019B5A1CC7
:1041380001924FF6FF72934216D00F492068FFF79D
:10414800D3FF0546A8B900212068FFF7D8FDC30FA3
:10415800EBD01D46E9E7030EC02B02D00023A36372
:1041680004E00123A36301E04FF08076304602B0FB
:1041780070BD4FF08056F9E70080FFC02DE9F04789
:1041880086B005468A4617469846FEF7AFFE814632
:1041980000246C632B68DC624FF0FF3300934FF40C
:1041A8000073019390230293022303930494012341
:1041B800059369462868FFF7A5FD21462868FFF79B
:1041C800F5FE064600B32B68384A9A636B6B1E43AC
:1041D8006E63012085F830002BE00134072C09D8E4
:1041E8002868FFF769FDA319B3EB970FF5D1CAF853
:1041F8000000F2E70836FEF779FEA0EB090040451B
:104208000CD2B8F1000F09D02868446B14F49574E7
:1042180012D1436B13F4004FEDD0DFE72B68234A2C
:104228009A636B6B43F000436B63012385F830306E
:10423800032006B0BDE8F087436B13F0080F11D1D7
:10424800436B13F0020F17D1436B13F0200F1DD0EF
:10425800164B83636B6B43F020036B63012085F877
:104268003000E6E7114B83636B6B43F008036B6325
:10427800012085F83000DCE70C4B83636B6B43F05F
:1042880002036B63012085F83000D2E7296C09042A
:10429800FFF75AFE10B16B6B03436B632B68044A3C
:1042A8009A63012385F830300020C2E7FF0FE01F32
:1042B8003A0F0018F0B583B0B1F5804F18BFB1F5CB
:1042C800004F03D00027384603B0F0BD06460C4621
:1042D8001546002301934FF0FF33BB2201A9FFF7D6
:1042E8004DFF00283ED19DF8073001930027042D8B
:1042F8003BD0022D3CD096F83F31002FE3D1B4F5E6
:10430800004F38D0019A5A4012F00F0FDBD01B0231
:1043180003F470631D4919433068FFF72EFE074602
:104328000028D0D14FF6FF74316C09043068FFF7CC
:104338000BFE054650B900213068FFF7E0FC074640
:10434800013C10F4807F01D1002CEDD1231E18BF51
:104358000123002D18BF00237BB117F0800F0FD168
:104368002F46B0E74FF48037C1E796F86331C4E7CA
:1043780096F83E31C1E71B09C4E724B12F46A2E7EE
:104388004FF080579FE74FF000479CE70000BB03C2
:1043980030B583B004460D4600220192436D9B0F51
:1043A8000B70436DC3F383634B7090F8573003F081
:1043B80003038B7090F85630CB7090F855300B7122
:1043C80090F854304B71836D1B0DCB80B0F85A3088
:1043D80003F00F030B72836DC3F3C0334B72836D0D
:1043E800C3F380338B72836DC3F34033CB72836D19
:1043F800C3F300330B734A736FF07043D42201A9DF
:10440800FFF7BCFE002840F0A0800246A36B002BFB
:1044180040F08680A16D40F6FC7303EA8103E16DEC
:1044280043EA91732B61E36DC3F3C2632B7594F870
:104438005F3003F007036B75E36DC3F34253AB754D
:10444800E36DC3F38243EB75E36DC3F3C2332B769D
:104458002B6901336364297E01F0070102318B4027
:104468006364297A01F00F0001218140A164490A9F
:1044780001FB03F3E3644FF400732365E36DC3F3B7
:1044880080336B76E36DC3F3C613AB76E36D03F04D
:104498007F03EB76236EDB0F2B77236EC3F3417319
:1044A8006B77236EC3F38263AB77236EC3F38353B7
:1044B800EB77236EC3F3405385F82030002385F84B
:1044C8002130B4F8623003F0010385F82230236EFE
:1044D800C3F3C03385F82330236EC3F3803385F8E4
:1044E8002430236EC3F3403385F82530236EC3F39D
:1044F800003385F82630236EC3F3812385F82730EF
:10450800236EC3F3012385F82830236EC3F34603D3
:1045180085F82930012385F82A30104603B030BDCC
:10452800012B07D1019B6364E3644FF40073A36418
:104538002365A3E72368064A9A63636B43F08053B5
:104548006363012284F83020E7E70122E5E700BF32
:10455800FF0FE01F2DE9F04387B005460E46904651
:10456800FEF7C4FC56B1814695F83070FFB2012FB2
:104578000AD00027384607B0BDE8F0836B6B43F0DC
:1045880000636B630127F5E700246C63032385F858
:1045980030302B68DC624FF0FF3300934FF4007328
:1045A800019390230293022303930494059469468C
:1045B8002868FFF7A7FB2A68D36843F04003D36055
:1045C80021462868FFF7F2FCD0B12B68324999637D
:1045D8006B6B03436B63012385F83030CAE72868A7
:1045E800FFF76AFB46F8040B0134072CF7D9FEF7EE
:1045F8007DFCA0EB090040450CD2B8F1000F09D0B2
:104608002B685C6B14F4957410D15B6B13F4004F3A
:10461800EDD0EAE72B68204A9A636B6B43F00043BE
:104628006B63012385F830300327A3E7DA6822F0AB
:104638004002DA602B685A6B12F0080F0ED15A6BE1
:1046480012F0020F14D15A6B12F0200F1AD1134A2C
:104658009A63012385F8303000278BE70E4A9A6366
:104668006B6B43F008036B63012385F8303081E7F7
:10467800094A9A636B6B43F002036B63012385F865
:10468800303077E7044A9A636B6B43F020036B631F
:10469800012385F830306DE7FF0FE01F3A0F00184F
:1046A80030B593B004460068FFF70FFB002800F010
:1046B8008A802068FFF7C4FC0546002840F0858002
:1046C80000212068FFF71BFB606604212068FFF7C4
:1046D80016FBA06608212068FFF711FBE0660C2195
:1046E8002068FFF70CFB206702212068FFF712FC07
:1046F8000546002869D1022323644FF4003120685D
:10470800FFF7B4FC054600285FD100212068FFF7B9
:10471800F6FA606504212068FFF7F1FAA065082120
:104728002068FFF7ECFAE0650C212068FFF7E7FA4C
:10473800206604212068FFF7E2FA000DE063216C8F
:1047480009042068FFF7CDFB054600283DD107A9DD
:104758002046FFF71DFE08B1656B36E0216C0904A1
:104768002068FFF7F1FB10B1636B034363634FF0FD
:10477800FF3204F174012046FFF7ECFE08B1656BC7
:1047880023E0216C09042068FFF7DEFB10B1636B9E
:10479800034363630DF1080C04F1040EBEE80F0037
:1047A800ACE80F00DEF80030CCF8003000230493AA
:1047B80005AB93E803008DE8030002AB0ECB20683D
:1047C800FFF762FA01E04FF08065284613B030BD6C
:1047D80070B588B0044600230393049305930693A9
:1047E8004FF480300021FDF715FE38B9012084F818
:1047F80030004FF00063636308B070BD0646050AD9
:10480800234BA3FB05352D09079508AB13E90300D6
:104818008DE8030003AB0ECB2068FFF735FA20685C
:10482800FFF74DFA15B16D00B6FBF5F65EB92046F7
:10483800FFF770FC024668B1012084F83000636B12
:1048480013436363D8E71348B0FBF6F00130FEF773
:1048580053FBECE72046FFF723FF024630B1012067
:1048680084F83000636B13436363C5E74FF400714A
:104878002068FFF71DFB08B90020BDE7236806493B
:104888009963636B03436363012084F83000B3E7E3
:10489800598B4F0110210100FF0FE01F2DE9F04156
:1048A80088B004460F46032380F8303003685A68FE
:1048B80012F4002F1FD05B6813F4802F16D0042247
:1048C800FFF7F8FC054645B9B7F5004F18D0B7F51E
:1048D800804F1BD007B34FF00065012384F83030B8
:1048E800002D44D1002008B0BDE8F0810222FFF776
:1048F800E1FC0546E7E70122FFF7DCFC0546E2E7B5
:104908002D492068FFF739FB05460AE02B49206846
:10491800FFF733FB054604E029492068FFF72DFB24
:104928000546002DD9D14FF6FF76216C0904206881
:10493800FFF70AFB804650B900212068FFF7DFF92E
:104948000546013E10F4807F01D1002EEDD1331EC3
:1049580018BF0123B8F1000F18BF002313B315F0D7
:10496800800F0CD0012384F830304FF48035236851
:10497800144A9A63606B284360630120B3E703AD70
:10498800261D0FCE0FC533682B60059708AB13E9BA
:1049980003008DE8030003AB0ECB2068FFF774F922
:1049A80045469AE70EB1454697E7012384F830302B
:1049B8004FF00045DBE700BF0002B7030001B70373
:1049C8000000B703FF0FE01F08B310B5044690F8C6
:1049D80030308BB1032384F830302046FFF7F8FEDF
:1049E800012808D000236363E362012384F8303090
:1049F800E16829B9002010BD0376FCF7C5F8E9E79E
:104A08002046FFF74BFF0028F5D00120F3E70120EF
:104A1800704730B583B000287AD0044690F89534B2
:104A2800ABB1032384F89534206800F0FFF8237CA9
:104A38008DF80030231D0ECB206800F0A5F858B182
:104A4800022384F895340125284603B030BD80F848
:104A58009434FCF719F9E4E70021206800F014FA0F
:104A6800024608B9034617E0022384F89534012565
:104A7800EAE703EBC30104EB8101012048750B75DC
:104A8800CB8500200876C861086203EBC30104EBFC
:104A9800810148620133DBB220799842E9D816E0F7
:104AA80002EBC20304EB8303002183F8551283F859
:104AB800542283F85812C3F85C12C3F8601202EB50
:104AC800C20304EB8303C3F864120132D2B29042EA
:104AD800E6D8237C8DF80030231D0ECB206800F02B
:104AE800FBF8054658B900236374012384F895340C
:104AF800237B012B08D0206800F0B4F9A4E7022337
:104B080084F8953401259FE7204600F003F8F2E782
:104B1800012599E7034602680121C0F8D81400204E
:104B280083F8CC04936943F000639361516D024BA1
:104B38000B435365704700BF0300001082B0002389
:104B48000193019B01330193019BB3F1706F15D859
:104B58000369002BF5DA00230193036943F001038D
:104B68000361019B01330193019BB3F1706F08D876
:104B7800036913F0010FF4D1002000E0032002B014
:104B880070470320FBE7000084B010B5044603A873
:104B980080E80E009DF81130012B1FD1A36B23F480
:104BA8008033A363E2681F4B1340E360E36823F498
:104BB8004013E3609DF81830012B0AD02046FFF718
:104BC800BDFF9DF80E30012B1CD0BDE8104004B08D
:104BD8007047E36843F48013E360EFE7E36843F06A
:104BE8004003E3602046FFF7A9FF9DF8153023B97D
:104BF800A36B43F48033A363E3E7A36B23F480330D
:104C0800A363DEE7E36D9BB2E365E26D064B1343F6
:104C1800E365A36843F00603A360A36843F0200399
:104C2800A360D2E7BFFFBDFF0000EE03836823F057
:104C3800010383600020704782B000230193019B29
:104C480001330193019BB3F1706F15D80369002BF1
:104C5800F5DA00230193890141F020010161019BEC
:104C680001330193019BB3F1706F08D8036913F006
:104C7800200FF4D1002000E0032002B07047032089
:104C8800FBE782B000230193019B01330193019B51
:104C9800B3F1706F13D80369002BF5DA0023019381
:104CA80010230361019B01330193019BB3F1706FE2
:104CB80008D8036913F0100FF4D1002000E0032096
:104CC80002B070470320FBE7D0F800381943C0F85A
:104CD800001800207047000084B0F8B5044607A803
:104CE80080E80E00002306E003F1400204EB820294
:104CF8000021516001330E2BF6D99DF8266006BBC2
:104D0800D4F8043843F00203C4F80438A36B23F43E
:104D18000013A363236843F040032360236843F030
:104D2800800323600023C4F8003E9DF82130012B46
:104D380011D19DF81F304BB900212046FFF7C4FF61
:104D48000DE0A36B43F40013A363EBE701212046B6
:104D5800FFF7BAFF03E003212046FFF7B5FF102154
:104D68002046FFF769FF054600B101252046FFF7F9
:104D780088FF00B1012504F5006C0023CCF8103041
:104D8800CCF81430CCF81C300AE0CBB94FF00060F6
:104D9800C2F8000900220A614FF67F328A600133A7
:104DA8009DF81C10994210D904EB431202F51061CA
:104DB800D2F800090028E8DB0020C2F80009E9E77A
:104DC8004FF09040C2F80009E4E700230AE0BBB1C5
:104DD8004FF09047C2F8007B002202614FF67F3205
:104DE80082600133994210D904EB431202F5306016
:104DF800D2F8007B002FEADB0027C2F8007BEBE744
:104E08004FF00067C2F8007BE6E7DCF8103023F4C7
:104E18008073CCF810300023A3616FF08043636186
:104E28009DF81E301BB9A36943F01003A361A26962
:104E38000A4B1343A3619DF822301BB1A36943F0C9
:104E48000803A361012E04D02846BDE8F84004B049
:104E58007047A269024B1343A361F5E700383C8011
:104E680004000040D0F8003E23F00303C0F8003EE1
:104E7800D0F8043843F00203C0F804380020704723
:104E8800406900F00100704738B50546C36823F053
:104E9800C043C360012913D019BBC36843F08043E2
:104EA800C36000240A20FEF727F80A342846FFF7D3
:104EB800E7FF08B1C72CF5D9C82C14D0002038BD9D
:104EC800C36843F00053C36000240A20FEF714F8B7
:104ED8000A342846FFF7D4FF0128EDD0C72CF4D9AF
:104EE800EAE70120EBE70120E9E70000054BD3F8EA
:104EF800882042F47002C3F888201A6942F0100230
:104F08001A61704700ED00E0DFF834D0FFF7EEFFDC
:104F18000C480D490D4A002302E0D458C45004330C
:104F2800C4188C42F9D30A4A0A4C002301E01360E2
:104F38000432A242FBD300F011F8FBF739FC7047AA
:104F4800008004100000001010000010EC4F100842
:104F5800D0000010140B0010FEE7000070B50D4DD6
:104F68000D4C641BA4100026A64209D10B4D0C4C15
:104F780000F020F8641BA4100026A64205D170BDDD
:104F880055F8043B98470136EEE755F8043B984737
:104F98000136F2E7E44F1008E44F1008E44F100818
:104FA800E84F100802440346934200D1704703F8C3
:104FB800011BF9E7F8B500BFF8BC08BC9E4670476E
:0C4FC800F8B500BFF8BC08BC9E4670475E
:104FD400000000000102030401020304060708099B
:044FE400BD021008F2
:044FE8009902100812
:104FEC0001000000100000000090D0030090D003DE
:104FFC0000000000000000000000000000000000A5
:10500C000000000000000000000000000000000094
:10501C000000000000000000000000000000000084
:10502C000000000000000000000000000000000074
:10503C000000000000000000000000000000000064
:10504C000000000000000000000000000000000054
:10505C000000000000000000000000000000000044
:10506C000000000000000000000000000000000034
:10507C000000000000000000000000000000000024
:10508C000000000000000000000000000000000014
:10509C000000000000000000000000000000000004
:1050AC0000000000000000000000000000000000F4
:0400000508104F117F
:00000001FF
